:100000000C9455010C9431160C9472010C947201ED
:100010000C9472010C9472010C9472010C94720194
:100020000C9472010C9472010C94411D0C94151ED9
:100030000C943C180C9472010C9472010C94720193
:100040000C9472010C9472010C9472010C94720164
:100050000C9472010C94DF180C9472010C947201D0
:100060000C9472010C9472010C9472010C94720144
:100070000C9472010C9472010C9472010C94720134
:100080000C9472010C9472010C9472010C94720124
:100090000C9472010C9472010C9472010C94720114
:1000A0000C9472010C9472010C94720129001E00D0
:1000B0001F0020002100220000002E0014001A0062
:1000C00008001500170000002B00040016000700B0
:1000D00009000A000000E1001D001B0006001900D5
:1000E0000500E000E000350050004F002A004C0001
:1000F000E2002D0027002600250024002300000038
:100100003100130012000C0018001C000000340025
:1001100033000F000E000D000B000000E50038005A
:100120003700360010001100E30030002F005100AE
:100130005200015128002C0029003A003B003C00ED
:100140003D003E003F0000000000000000000000F5
:10015000000000000000000000000000000000009F
:10016000000000000000000000000000000000008F
:10017000000000000000010000000000000000007E
:1001800045004400430042004100400000000000E0
:10019000000000000000000000000000000000005F
:1001A000000000000000000000000000000000004F
:1001B000000000000000000000000000010001003D
:1001C0000000000012034500720067006F00440049
:1001D00061007300680000000C034F006D006B00AD
:1001E0006200640000000403090409023B000201EC
:1001F00000A0FA0904000001030101000921110116
:1002000000012240000705810308000109040100E4
:10021000010300000009211101000122320007053D
:1002200082032000011201000200000008EDFE60C0
:100230006000010102000105010980A10185031987
:10024000012AB700150126B700950175108100C07D
:10025000050C0901A101850419012AA00215012636
:10026000A002950175108100C005010906A10105D4
:100270000719E029E7150025019508750181029508
:1002800001750881010507190029FF150026FF00E7
:100290009506750881000508190129059505750160
:1002A0009102950175039101C00011241FBECFEF8B
:1002B000DAE0DEBFCDBF11E0A0E0B1E0E6EFF0E4B0
:1002C00002C005900D92A839B107D9F722E0A8E93C
:1002D000B1E001C01D92AA39B207E1F70E945113A3
:1002E0000C9463200C9400000E94A80F08950895B8
:1002F00081E0089581E008950E947A0108950895AB
:100300000E947F010895A5E0B0E0E9E8F1E00C94D7
:10031000E31F49835A8330919B0189819A8131116E
:1003200019C0662399F0222389F00E94DF07182F55
:10033000682F89819A810E94BB0769817A81812F08
:100340000E94460E2596E3E00C94FF1F0E94CD0705
:10035000182FF3CF0E94DF0769817A81F1CFFC016A
:10036000262F408151816281738184810E948301A3
:10037000089581E00895CF93DF93EC0160E00E943F
:10038000AF01BE010E948001DF91CF9108950E94CC
:10039000740108950E94AA0F08950E940A060E94FF
:1003A00077012FEF84E39CE0215080409040E1F7FB
:1003B00000C0000008950E94CD010E940319089515
:1003C0000E94CD010E94141908950F931F93CF939B
:1003D000DF938C0161E00E94AF01EC01B8010E9443
:1003E0007C01811106C080E0DF91CF911F910F91B8
:1003F0000895B801CE010E9441158823A1F3B801E8
:10040000CE010E947613882371F3B801CE010E94B9
:10041000B314882341F3F8018281882361F0CB353E
:10042000FDE5DF0701F158F4C115ECE5DE0791F0B9
:10043000CF3DDC4591F0C8010E947801D5CFCD3584
:100440008DE5D80769F090F0C83ADD45A1F70E9424
:10045000E001C9CF0E94DB01C6CF0E949E0CF7CFFE
:100460000E94DF0BE8CF0E94E90BE5CF0E94ED0B65
:10047000E2CF0E9419180E94560208950E945A0263
:100480000E941E18089508950E944302089581E075
:1004900008950E94470208950895CF93C82F0E949F
:1004A00044028C2F0E944902CF91089580E00E945F
:1004B0004D0208950E9457170E944D0208950E9410
:1004C000571790919A01981721F080939A010E94F2
:1004D0004D020895ABE0B0E0E0E7F2E00C94E41FD9
:1004E0004F83588769877A878B8761110E942A0B0F
:1004F0001E821D8285E0FE013796DE011196019075
:100500000D928A95E1F78C819D81892B61F4498157
:100510005A816B817C818D819E810E94530A2B962A
:10052000E2E00C94002089819A8189238F3F79F33E
:10053000CE0101960E94B9018111E9CFF0CFFC01F3
:10054000808191810E9419080895CF93C82F882334
:10055000C9F08238C9F40E94571781FD13C089E39E
:100560000E94E20A0E944B0B2FEF81EE94E0215093
:1005700080409040E1F700C0000089E30E94EA0A51
:100580000E944B0BCF9108958338A1F40E94571716
:1005900080FDF8CF83E50E94E20A0E944B0B2FEF0B
:1005A00081EE94E0215080409040E1F700C00000CF
:1005B00083E5E4CF8438A1F40E94571782FDE2CF8F
:1005C00087E40E94E20A0E944B0B2FEF81EE94E039
:1005D000215080409040E1F700C0000087E4CECF7A
:1005E0008CEF8C0F813A90F46C2F809100019091E8
:1005F00001010E94B417882329F08C2F0E94EA0A77
:100600000E944B0B8C2F0E94E20ABACF80E28C0F23
:10061000883048F4C77081E001C0880FCA95EAF7B6
:100620000E940D0BADCFEBE5EC0FE33040F4F0E0B2
:10063000EA5AFE4F808190E00E947617A3CFC85AF5
:10064000C73108F09FCFEC2FF0E0EE0FFF1FE85D01
:10065000FE4F808191810E948C1794CF882309F4EA
:100660004DC0823879F40E94571781FF47C089E353
:100670000E94E20A0E944B0B89E30E94EA0A0E9450
:100680004B0B0895833859F40E94571780FF36C0EA
:1006900083E50E94E20A0E944B0B83E5EECF84388B
:1006A00059F40E94571782FF29C087E40E94E20A8A
:1006B0000E944B0B87E4E1CF9CEF980F913AE8F250
:1006C00090E2980F983050F4877091E001C0990F34
:1006D0008A95EAF7892F0E94130BD1CF9BE5980FDB
:1006E000933028F490E080E00E9476170895885AAD
:1006F000873120F490E080E00E948C1708951F93CA
:10070000CF93DF93182FEB010E94A502209739F4B5
:10071000812F0E942E03DF91CF911F9108958FE9C1
:100720009FE00197F1F700C000002197EFCF70E044
:1007300060E0893311F460E570E00E947F03089562
:10074000882321F00E940D0B0E944B0B08958823F3
:1007500021F00E94130B0E944B0B0895B0E0A0E023
:10076000E4EBF3E00C94DD1F6C01D62FC72FFC01E6
:100770001281F580F2949FE0F9220E94030BE82E8B
:100780008823B9F0E12E1123A1F08C2F807F8034D3
:1007900021F080E28D0F8830D0F08091720282FFCC
:1007A00016C082E00E94AE0B0E94030B91E0E82E7F
:1007B000E926BC2EB2948FE0B822FBE0FB1508F4CA
:1007C00068C0EB2DF0E0EB59FF4D0C94CE1FE12CEF
:1007D000F0CF0C2F0F70C07F11F00295007F112316
:1007E00099F0002359F080E28D0F883010F0D1117C
:1007F00007C0802F0E940D0B0E944B0B8D2F41C014
:10080000802F0E941D0BF8CF8D2F0E942E030023F6
:1008100009F43FC080E28D0F883010F0D11104C080
:10082000802F0E94130B03C0802F0E94230B0E9475
:100830004B0B2FC00C2F0F70C07FC03211F00295F0
:10084000007FDD2381F0D13009F463C0112309F466
:100850006DC0FF2009F463C0F601858180FFCECF13
:100860008F7085835CC08091720282FD33C011233A
:1008700059F0002329F0802F0E940D0B0E944B0B92
:1008800080E00E94A50205C080E00E942E030111B5
:10089000C7CFEB2DE850FF0B349720F40E94571779
:1008A0000E944D02EE2089F00E94FF0A80FD0DC0DB
:1008B000F60112820E94F90A0E94C306C6010E9434
:1008C000CE050E94F90A0E94E506CDB7DEB7E9E041
:1008D0000C94F91F112389F0F11006C00E942D0B12
:1008E000802B0E94A003D5CF21E0F212F7CF0E9407
:1008F0002D0B802B0E94340BCCCFF11006C00E9430
:10090000410B802F0E94A703C4CF31E0F31609F2F8
:10091000F6CF112331F085E08F1508F4BACF802F80
:10092000E0CF94E09F1508F4B4CFEBCFFF2049F35C
:10093000D93349F4FFEF27EE33E0F1502040304047
:10094000E1F700C000008D2F0E942E03A2CF8C2F54
:1009500086958695837069F0813009F09ACF8D2F46
:100960009C2F9370111102C090E080E00E948C17C0
:1009700090CF8D2F9C2F9370111102C090E080E0DA
:100980000E94761786CF8C2F837009F041C0111119
:1009900080CF4D2F429546954770440F440F0D2F41
:1009A0000F7010E030E020E0042E04C0000F111F93
:1009B000221F331F0A94D2F760E070E0CB01D4FF0E
:1009C0000FC06FE070E080E090E004C0660F771F1A
:1009D000881F991F4A95D2F76095709580959095DC
:1009E000C695C695C370602B712B822B932BC2309A
:1009F00049F058F4C13019F00E946E064ACF0E94A7
:100A00005B0647CF0E94810644CF0E94580641CF23
:100A10008695112311F08C2F8170882309F439CF2A
:100A20004D2F429546954770440F440F0D2F0F7080
:100A300010E030E020E0042E04C0000F111F221F40
:100A4000331F0A94D2F760E070E0CB01D4FF0FC0EF
:100A50006FE070E080E090E004C0660F771F881FB1
:100A6000991F4A95D2F76095709580959095C69597
:100A7000C695C370602B712B822B932BC23049F02B
:100A800058F4C13019F00E943E0703CF0E942B0793
:100A900000CF0E945107FDCE0E949A06FACECF7079
:100AA000112329F08C2F0E94C3068D2F1ACF8D2F72
:100AB0000E94A7038C2F0E94E506EBCED23F51F196
:100AC00060F4D03FB9F0D13F81F0112309F449C05F
:100AD000F11094CE8C2F8F7121C0D33F11F1D43FF0
:100AE000A1F78091720282FD26C08C2F8F71112395
:100AF00011F314C0112349F084E08F1508F4C9CE16
:100B00008C2F8F710E940907C4CE95E09F1508F4C1
:100B1000C0CEF6CF8C2F8F711111CDCF0E94C3069E
:100B2000B8CE112329F08C2F8F710E94AD06B1CE63
:100B30000E94A706AECE112349F0CF718C2F0E94E0
:100B4000C30663E08C2F0E94900BA3CE81E00E942D
:100B5000AE0BE1E0EF1508F09CCE82E00E94AE0BF8
:100B600098CEF110E5CE8C2F8F71A5CF0F931F93E8
:100B7000CF93DF93EC01688179818A810E942408F8
:100B80008C010E9464070E945706B801CE010E94A2
:100B9000AE03DF91CF911F910F910895CF93DF9313
:100BA000EC018B819C81892B29F088819981892393
:100BB0008F3F51F4DF91CF910895CE010E94B60589
:100BC000CE010E94BB01F6CFCE010E94E50181114A
:100BD000F4CF0E94030B882369F38A81882351F3A1
:100BE0008091720282FFE6CF82E00E94AE0BE2CFDC
:100BF00090E080E00E94761790E080E00E948C17E1
:100C00000E942A0B0E944B0B08950E94F20A0E9438
:100C1000F80508950E941A0B0E9405060895929502
:100C20009F70963091F058F4925F9F70923058F414
:100C3000803F19F030F4883E30F481E008959A5FE7
:100C4000F4CF843FD1F380E00895883EB0F3813F34
:100C5000D1F7F3CFFC01808191810E9419080E9495
:100C60000F060895A5E0B0E0E8E3F6E00C94E41F79
:100C70002596E2E00C940020A6E0B0E0E2E4F6E085
:100C80000C94E41F2696E2E00C94002008950E9444
:100C9000460608950E9447066093CD017093CE01E9
:100CA0008093CF019093D0010E94F8050895089594
:100CB0000E944A0608950F931F930091CD01109151
:100CC000CE012091CF013091D001602B712B822B6E
:100CD000932B0E944A061F910F9108950F931F9323
:100CE0000091CD011091CE012091CF013091D00122
:100CF00060237123822393230E944A061F910F9140
:100D000008950F931F930091CD011091CE01209172
:100D1000CF013091D00160277127822793270E944D
:100D20004A061F910F9108950E94460608950E9459
:100D3000940608950E9497066093C9017093CA01B2
:100D40008093CB019093CC010E94F805089560E058
:100D500070E0CB010E949A0608950F931F9341E023
:100D600050E060E070E08A019B0104C0000F111F99
:100D7000221F331F8A95D2F7C901B8010E949A0633
:100D80001F910F9108950F931F9341E050E060E091
:100D900070E004C0440F551F661F771F8A95D2F775
:100DA0008091C9019091CA01A091CB01B091CC0171
:100DB0008A019B01082B192B2A2B3B2BC901B80157
:100DC0000E949A061F910F9108950F931F9341E07F
:100DD00050E060E070E004C0440F551F661F771FAD
:100DE0008A95D2F7CB01BA01609570958095909560
:100DF0000091C9011091CA012091CB013091CC0121
:100E000060237123822393230E949A061F910F91DE
:100E100008950F931F9341E050E060E070E004C03C
:100E2000440F551F661F771F8A95D2F78091C9011D
:100E30009091CA01A091CB01B091CC018A019B0194
:100E4000082719272A273B27C901B8010E949A06BB
:100E50001F910F9108950F931F930091C901109155
:100E6000CA012091CB013091CC01602B712B822BD8
:100E7000932B0E949A061F910F9108950F931F9331
:100E80000091C9011091CA012091CB013091CC0190
:100E900060237123822393230E949A061F910F914E
:100EA00008950F931F930091C9011091CA012091D9
:100EB000CB013091CC0160277127822793270E94B4
:100EC0009A061F910F9108950895262F277091E09B
:100ED00001C0990F2A95EAF723E0769567952A9540
:100EE000E1F725E0269FF001279FF00D1124E40F84
:100EF000F51F50E040E0682F70E08191DF0111970D
:100F00009B01042E02C0369527950A94E2F72170C2
:100F100021952827292328272C934F5F5F4F4530A1
:100F2000510559F70895A82FA77023E09695879546
:100F30002A95E1F725E0289FF001299FF00D112463
:100F4000E60FF71F50E040E080E0219130E00A2EEC
:100F500002C0369527950A94E2F721703327042EB4
:100F600001C0220F0A94EAF7822B4F5F5F4F453092
:100F7000510559F70895262F9A3070F4873060F4A0
:100F8000682F70E087E0989F600D711D11244CE977
:100F900051E0822F0E9465070895292F9A3068F446
:100FA000873058F490E06CE971E037E0239F800DC2
:100FB000911D11240E949307089580E00895B0E0E8
:100FC000A0E0E5EEF7E00C94DD1F8C01C090C901B4
:100FD000D090CA01E090CB01F090CC018091CD017E
:100FE0009091CE01A091CF01B091D001C82AD92A09
:100FF000EA2AFB2ACFE1D0E0BC2ED701C6010C2E95
:1010000004C0B695A795979587950A94D2F780FD69
:1010100009C0219788F7B12C8B2DCDB7DEB7E9E059
:101020000C94F91FB8018C2F0E94610E019789F36F
:10103000F3CFCF93DF93EC010E94DF07BE010E9444
:10104000610EDF91CF9108951F93CF93DF93EB0152
:1010500090919B01992339F0CB010E941908DF91EF
:10106000CF911F910895882369F0CB010E94DF077B
:10107000182F682FCE010E94BB07BE01812F0E944E
:10108000610EEDCFCB010E94CD07182FF6CF1F9335
:10109000CF93DF93C091D10116E08091D2018C13E0
:1010A00004C0DF91CF911F910895D0E01C9FF00103
:1010B0001D9FF00D1124ED52FE4F40815181628140
:1010C0007381848195810E943C062196C770E5CF8B
:1010D0004091030250910402609105027091060252
:1010E00080910702909108020E943C0608951F9388
:1010F000CF93DF9380910802807F09F049C08091EF
:101100000502882309F444C08091D101C091D20125
:101110006091030270910402A0910602B09107024F
:10112000D62FD72316E0C81799F190E0109711F049
:10113000DF3F19F401968770F6CF189F9001199F31
:10114000300D1124F901ED52FE4F41814713F2CFCA
:1011500040814613EFCF42814111ECCF438154814E
:101160004A1B5B0B4837510528F7809108028F70A6
:10117000806180930802F901E852FE4F80818F70F0
:101180008061808383E092E00E94CE050E94470840
:10119000DF91CF911F910895A1E1B0E0E2EDF8E079
:1011A0000C94DC1F8C0185E0F801DE011D96019096
:1011B0000D928A95E1F7F801E28083E0C82E82E083
:1011C000D82E60910602709107026115710509F42D
:1011D0004EC19091030220910402892F82238F3FF8
:1011E00009F445C140815181A380B480F09005028B
:1011F000F501E61BF70BFF2009F4EAC08091080215
:10120000382F307FE837F10508F0A3C031116DC0E9
:10121000FE2C251316C0941314C0E11012C08F7059
:101220008061809308020E946808C6010E94CE0572
:1012300080910802F80185838F2D6196EAE00C9475
:10124000F81FA114B10429F0842F85238F3F09F0E2
:1012500027C180E0F82FF170DF2E80FF3CC0809125
:10126000D1012091D20136E0821315C04D875E87EF
:101270008D859E850E941908292F22952F70223076
:10128000F0F0243018F59F70F1F0F8019581907F0F
:10129000D1F4D12C1EC090E0389FF001399FF00DA1
:1012A0001124ED52FE4F6181651306C06081641305
:1012B00003C06281E6120FC001968770D5CF9F7080
:1012C00011F0882331F3805E883018F3C8010E9442
:1012D000CE05FD2CB1CFEE2009F4AECF80910802EF
:1012E000816080930802F12CA7CF251306C09413C8
:1012F00004C0F801EE2009F487C0C8010E942A0644
:10130000882319F1EE2009F180910802803270F0F3
:10131000209103023091040238872F831986BB86FF
:10132000AA868C87CE0107960E94CE0586E0F8013A
:10133000A3E0B2E001900D928A95E1F70E94770850
:101340000E946808FF24F39477CFC8010E94CE055D
:10135000F9CF311113C07A2DB98AA88A6E2D8989E7
:101360000E94320683E092E00E94CE0586E0F601FC
:1013700011928A95E9F70E946808B5CF25130FC02E
:1013800094130DC0E1100BC0F8018583C8010E94C1
:10139000CE0586E0F60111928A95E9F74DCFC80196
:1013A0000E942A06882389F2EE2079F280910802B1
:1013B000803208F4BBCF20910302309104023A83BB
:1013C00029831B82BD82AC828E83CE010196ACCF75
:1013D000E837F10508F03EC0FE2CEE2009F4B5CF49
:1013E00025132AC0941328C08091080280FD1BC0D9
:1013F000982F907FC1F0F8018583903F31F0982FAE
:10140000907F905F8F70892B8583C8010E94CE05E5
:1014100086E0F801A3E0B2E001900D928A95E1F731
:101420000E94680809CF86E0F801A3E0B2E00190CD
:101430000D928A95E1F700CFC8010E942A0681111A
:1014400075CF80910802816080930802C8010E94D4
:10145000CE05F2CE7A2DB98AA88A6E2D89890E948E
:10146000320686E0F60111928A95E9F7D9CFEE208F
:1014700009F46BCFC8010E942A06F82E882309F4CC
:1014800064CF86E0F801A3E0B2E001900D928A9566
:10149000E1F783E092E00E949F020E947708C0CFAC
:1014A00081E08E25D7CEACE0B0E0E9E5FAE00C941F
:1014B000E31F4F83588769877A878B879C87CE0184
:1014C00007960E94CC08882369F08A859B85892B22
:1014D00039F04F815885842F85238F3F09F06BC0E9
:1014E00016E05FC086E0FE013796DE01119601909E
:1014F0000D928A95E1F78A859B85892B89F38885EA
:101500009F8189238F3F61F32091D20130E0C9018F
:101510000196877099274091D1014817190671F4F7
:101520000E940A061092D2011092D10186E0E3E0F7
:10153000F2E0DF011D928A95E9F7D2CF96E0929F03
:10154000D001939FB00D1124AD52BE4FFE013196D4
:1015500001900D929A95E1F78093D2010E9447087D
:10156000BFCF819FC00111248D529E4F0E94CC0895
:101570008823E9F0E091D1011E9FF0011124ED5282
:10158000FE4F4081518162817381848195810E94E7
:101590003C068091D10190E0019687709927809355
:1015A000D1018091D1019091D2018913DACF2C968B
:1015B000E3E00C94FF1F69857A858B859C850E94EA
:1015C0003C068ECF682F80910001909101010E940E
:1015D000EA170895682F80910001909101010E94FF
:1015E000ED17089580910001909101010E94F0177C
:1015F000089580911102859585958595089580912E
:1016000011028770089590911102977081E009F49A
:1016100080E0089580911C02089590911C02892B0E
:1016200080931C020895809590911C0298239093BA
:101630001C02089510921C02089590911B02892BA0
:1016400080931B020895809590911B02982390939C
:101650001B02089510921B020895809112020895B2
:1016600008950E94300B08959091720292FF08C075
:1016700090911202981721F0809312020E94310B70
:10168000089580911202882329F01092120280E0BE
:101690000E94310B0895CF93DF93E0910001F09108
:1016A000010180911C028083E0910001F091010111
:1016B000808190911B02892B808390911202992343
:1016C00081F0E0910001F09101018081892B8083FC
:1016D00080910001909101010E94A21781110E9446
:1016E000410BC0910001D091010148E050E069E058
:1016F00072E0CE010E940B20892B59F088E0FE0198
:10170000A9E0B2E001900D928A95E1F7CE010E9426
:101710006B17DF91CF91089508950E948C0B089567
:101720009091720292FF11C098E0899F900111245C
:10173000622B609311020E94C3068091110285956D
:10174000859585950E948D0B08950E94C306089586
:101750001092110280E00E948D0B08959091110269
:101760008095892380931102282F277091F4282FC8
:10177000082E000C330B9217130659F09091720249
:1017800092FF07C08595859585950E94E5060E9484
:10179000A80B08959091720292FB222720F9281736
:1017A00069F080FB92F9909372028091710290919E
:1017B00072020E94140C82E00E94AE0B0895809188
:1017C000720282FB882780F991E089270E94CA0B68
:1017D000089581E00E94CA0B089580E00E94CA0B20
:1017E000089590E080E00E94292021E0883E9E4FED
:1017F00009F020E0822F089582E090E00E942120ED
:10180000089583E090E00E9421200895CF9384E022
:1018100090E00E942120C82F82E290E00E942120C7
:10182000982F8C2FCF910895CF93C92F682F84E0E4
:1018300090E00E942F206C2F82E290E00E942F20E7
:10184000CF910895AB01BC018FE090E00E94412050
:101850000895AB01BC0183E190E00E94412008950E
:1018600060E070E0CB010E94290C089560E070E018
:10187000CB010E94220C0E94300C089568EE7EEF8E
:1018800090E080E00E944D2060E082E090E00E94C5
:101890002F2060E083E090E00E942F201092CD0185
:1018A0001092CE011092CF011092D00160E084E03E
:1018B00090E00E942F2064E082E290E00E942F20BE
:1018C00060E085E090E00E942F2060E086E090E0FC
:1018D0000E942F206FEF87E090E00E942F2040E0D1
:1018E00050E0BA0188E090E00E94412060E08DE085
:1018F00090E00E942F2040E050E0BA0188E190E0A3
:101900000E94412060E087E190E00E942F2040E0AB
:1019100050E0BA018CE190E00E94412070E060E06C
:1019200080E290E00E944D2040E050E0BA0188E162
:1019300090E00E9441200E94360C08950E943E0CC7
:101940000895682F8EE090E00E942F2008950E9455
:10195000A81860932B0270932C0280932D02909311
:101960002E0260932702709328028093290290939D
:101970002A020895089508950E94BB0C08950895C1
:101980000E94BF0C089580E89FE00E944D170E94BE
:10199000BA0C0E94BC0C08950E944D110895089540
:1019A00008950E94CF0C0E94D00C08950E94830FCE
:1019B0000E944C0208950E9493180E94400F0E94BA
:1019C00068110E94B1100E94D60C0E945E130E9402
:1019D00072110E94C00C0895AAE0B0E0E2EFFCE0B2
:1019E0000C94DA1F0E94D410982E81110E94A70C2B
:1019F0008DE1A82E82E0B82E10E000E0802E802F2E
:101A00000E94AD0FE82EF501C1905F01C816B1F13B
:101A100080912F0281FD0E94B30FD12CFF24F394FB
:101A2000CE248C2D8F2129F10E94CC0C882399F093
:101A3000DE828F82EF2081E009F480E088870E94B7
:101A40009C188160782F9A8789874E815F8168858D
:101A50008A850E946A02F801E35EFD4F8081F826C4
:101A6000F08281E0911001C080E02A96ECE00C94B5
:101A7000F61FD394FF0CF7E0DF12D3CF0F5F1F4F99
:101A80000A30110509F0BACF8FEF89838A831B8250
:101A90000E949C188160782F9D838C8349815A8194
:101AA0006B818D810E946A02DCCF0E94EC0C0E9447
:101AB0004D110E945F020895CF93DF930E94660E3E
:101AC000EC01811522E59207E8F5811531E59307D0
:101AD00008F0ACC0883E910510F5803E910570F588
:101AE000883A910570F4853A910508F078C0813004
:101AF000910521F1009711F1049700F5D0E0C0E0C5
:101B00001DC08F3B9105D0F7C85AD0E0CC0FDD1F28
:101B1000C75ADE4F0990D881C02DD4640FC08115FB
:101B200040E5940708F066C0C11580E4D80708F0C6
:101B30005EC0CE019A9581159F4100F7CE01DF91DD
:101B4000CF910895811536E5930718F5811545E580
:101B5000940708F083C0C11584E5D80708F079C060
:101B60009C2F969596959E0123703327C115D345DA
:101B700008F461C0C1E0D0E002C0CC0FDD1F2A959F
:101B8000E2F730E2939FC0011124C82BD92BDA6809
:101B9000D5CFC1158AE5D80778F4C11599E5D907DD
:101BA00008F066C0C11528E5D20708F4A7CFDC2FDE
:101BB000CC27C06FD06AC2CFCE019056811590421B
:101BC00008F09CCF8D2F8F710E94FD0E90E0982F12
:101BD000882788279F719C012C2BE90147C0C55A93
:101BE000D0E0C957DE4FC881D0E0D064A7CFDF7006
:101BF000D06AA4CFE4E096958795EA95E1F78370E3
:101C00002C2F26952695237040E2249F90011124C5
:101C1000382B8C2F8370C1E0D0E002C0CC0FDD1FC9
:101C20008A95E2F7C22BD32BDC6888CFD82FCC273C
:101C3000C16FD06A83CFC1E0D0E002C0CC0FDD1FFE
:101C40002A95E2F720E2929FC0011124C82BD92BDC
:101C5000EBCFDC2FCC27C46FD06A70CF0E94FD0E73
:101C6000C82FD0E0DC2FCC27CC27DF71D06266CF25
:101C70008C2F8F700E94FD0E34E0D695C7953A9553
:101C8000E1F7CF709C2FEC01D06958CF972F7A30B5
:101C9000A8F4673098F470E027E0929F600D711D02
:101CA0001124FB0196E4899FE00DF11D1124EE0F34
:101CB000FF1FE455FF4F85919491089580E090E0D7
:101CC00008950E94460E0E945C0D08958238910589
:101CD000B1F1B0F48133910509F475C048F489324B
:101CE000910509F469C08A32910509F473C0089519
:101CF0008533910509F459C08933910501F108959F
:101D0000833E9105A9F138F4803E9105F9F0823EB9
:101D1000910549F10895863E9105A9F1873E910507
:101D2000C9F1843E910519F52091720221FF1FC06F
:101D30008091710284FD14C087EE90E00895209197
:101D400071022370A1F080EE90E00895209171025D
:101D500020FD47C03091720230FF09C024FF44C00B
:101D600090E080E004C02091710222FDF7CF089539
:101D70002091710222FD3BC03091720230FDE3CF11
:101D800024FFF5CFEDCF2091710223FFF0CF24FD8A
:101D9000E7CFD2CF2091710223FD2CC03091720287
:101DA00031FFEECF84EE90E008952091710225FF7F
:101DB000DECF89E290E008952091710225FFD7CF10
:101DC00085E390E008952091710226FFD0CF8AE24A
:101DD00090E008952091710226FFC9CF81E390E041
:101DE000089589E390E0089583EE90E0089582EEEF
:101DF00090E0089586EE90E008959091710292FF30
:101E000006C0282F28712830F9F4877F846093FF5B
:101E100006C0282F28712831F1F4877E8461209133
:101E2000720220FF06C0382F38713830D9F4877F0E
:101E3000816021FF06C0282F28712831D1F4877EC8
:101E4000816194FD877E0895282F24712430F9F64E
:101E50008B7F8860DCCF282F2471243101F78B7EA3
:101E60008861DDCF382F3171313019F78E7F88606E
:101E7000E0CF282F2171213121F78E7E8861E1CFBB
:101E800010926D0210926E0210926F021092700208
:101E90000895CF92DF92EF92FF926B017C010E9436
:101EA0004D1181110EC00E94A818C61AD70AE80A5F
:101EB000F90AC0926D02D0926E02E0926F02F09227
:101EC0007002FF90EF90DF90CF9008950F931F93D3
:101ED0000E944D11882329F00E94A8181F910F918C
:101EE00008950E94A81800916D0210916E02209131
:101EF0006F0230917002600F711F821F931FEECF2F
:101F000080E0089508950E94F10B811102C00E94A3
:101F10009E0C0E94FC0B80932F020E94060C909353
:101F20007202809371020E94820F0E94010C682F3E
:101F300070E090E080E00E9458066091C9017091C5
:101F4000CA018091CB019091CC010E94970608951F
:101F5000089508950E94A90F0895E82FF0E0E2582F
:101F6000FD4F80810895089580EA8A95F1F70895DC
:101F700000C008950E94B40F089508950E94BD0FF7
:101F80000895A5E0B0E0E7ECFFE00C94E01F0E94AC
:101F90004D11F82E60918802882309F440C085E035
:101FA000E82E8E010F5F1F4FF8018E2D11928A953A
:101FB000E9F7862F90E0B80182589D4F0E9480116A
:101FC0008823B9F08091730290E045E050E0B801B9
:101FD00082589D4F0E940B2021E020933002892BD4
:101FE00091F4F12C0E94CA018F2D2596E6E00C9405
:101FF000FC1F809130028823A1F3F8011192EA942A
:10200000E9F710923002A0917302B0E0A258BD4FE0
:1020100085E0F80101900D928A95E1F7E3CF70E039
:1020200062587D4F8091730290E082589D4F0E94CC
:1020300007120E94BE0FD8CFF894E82FE295EF70F8
:10204000F0E031A1282F2F7081E090E001C0880FCF
:102050002A95EAF7982F9095932391A392A1892B23
:1020600082A3789408950F931F93CF93DF93C1E9D0
:10207000D1E089918F3F11F00E941C1081E0C63998
:10208000D807B9F7CAE8D1E001E911E089918F3F9B
:1020900011F00E941C100C171D07C1F7DF91CF91A2
:1020A0001F910F910895B0E0A0E0E9E5F0E10C94F4
:1020B000DE1FEC01D62E062F10E0C8018F569E4F72
:1020C0007C01FC0180818F3F09F444C0F894E82F23
:1020D000E295EF70F0E091A18F7021E030E001C057
:1020E000220F8A95EAF7892F822B81A382A120955E
:1020F000282322A378940E94B80FEAE8F1E031E0A7
:10210000C12C21912F3F59F1A22FA295AF70B0E0C1
:1021100090968C9190E02F7002C0959587952A95A6
:10212000E2F780FD1CC0832FC82A330F81E0E1391C
:10213000F80739F7F70180818F3F11F00E941C10DA
:1021400061E0C11001C060E08D2D0E94BA0FC00F88
:10215000D11FC882CDB7DEB7E8E00C94FA1F80E04B
:10216000E3CF809102018091020195E0811190E01E
:102170009093880285E0891B809373020E9433103C
:102180008AE0EEE7F2E0DF01982F1D929A95E9F7D9
:10219000E4E7F2E0DF011D928A95E9F785E00E940D
:1021A00017110E94C7010895AAE0B0E0EAEDF0E13E
:1021B0000C94E01F8E010F5F1F4F8AE0F80111920F
:1021C0008A95E9F7F12C6F2DC8010E945310F39402
:1021D000F5E0FF12F8CF4AE050E0B80184E792E062
:1021E0000E940B207C0121E0892B09F420E0E114FE
:1021F000F10441F08AE0F801A4E7B2E001900D9209
:102200008A95E1F76091880270E062587D4F45E061
:1022100084E792E00E94181181E090E0E114F1045B
:1022200011F40E94C10F2A96E6E00C94FC1F089559
:10223000FF920F931F93CF93DF93F82E092F162F42
:10224000D72FC42F222349F081E0809333020E94CC
:102250009C1890933202809331028091330288233C
:10226000A1F080913102909132020E94B41805973A
:1022700060F0EF2DF02FA12FBD2FCE0FDF2FD11D3E
:10228000EC17FD0739F410923302CDB7DEB7E5E065
:102290000C94FD1F81918D93F3CF809136028111B3
:1022A00007C00E94C11F882351F081E0809336024D
:1022B00081E090913602913009F080E0089582E04B
:1022C000809336020E94BC1FF3CF0E944D110895E7
:1022D0000E946511809302010E944D1181110E949C
:1022E000B61108950E944D11811102C00E94B911CA
:1022F000089581E0909137029A3008F080E00895C7
:102300000F931F93CF93DF93EC018B0180913702E2
:102310008A30B8F4B801CE010E940412C82F81118E
:1023200022C0809137028F3FB9F40E949C1890938D
:102330003502809334028C2FDF91CF911F910F9142
:10234000089580913402909135020E94B418843F20
:10235000914000F7C0E0EFCF8F5F809337028A3063
:1023600020F7C1E0E8CF10923702E5CF0E94EB15CD
:1023700008950E94EE150895B0E0A0E0E2ECF1E1CE
:102380000C94DF1F7901C82F880FDD0B4115510513
:10239000A9F0FE0193E0EE0FFF1F9A95E1F7ED5FC4
:1023A000FE4F81819281885C9D4F208130E04217F1
:1023B000530708F49A01A9010E941820CE010E9437
:1023C000D716D82E8823D1F001151105B9F083E076
:1023D000CC0FDD1F8A95E1F7FE01ED5FFE4F4381D3
:1023E00050E00417150708F4A801CD5FDE4F6C819B
:1023F0007D81685C7D4FC7010E9418208D2DCDB76F
:10240000DEB7E7E00C94FB1F0E94F61208950E94CD
:102410000D130895A4E0B0E0E0E1F2E10C94E21FB6
:1024200060914F027091500280915102909152023E
:102430000E94C31811E0643671058105910518F1F9
:102440000E94660F6E5F7F4F8F4F9F4F69837A8325
:102450008B839C8310E000E030E020E044E050E01B
:10246000BE016F5F7F4F82E00E94BC11182F88234E
:1024700051F00E94A81860934F027093500280930D
:10248000510290935202812F2496E4E00C94FE1F97
:10249000B0E0A0E0EEE4F2E10C94DC1F7C015B0113
:1024A0006A010E94791101E010E0882311F00AE02E
:1024B00010E0C1E0D0E0B501C701F6010995811136
:1024C00004C021960C171D072CF4CDB7DEB7EAE047
:1024D0000C94F81FCC9F9001CD9F300D300D11242E
:1024E00090E080E045E34A95F1F7000001968217FD
:1024F0009307C1F7E0CFA6E0B0E0E1E8F2E10C9489
:10250000DC1F7B01C0909601D090970101E010E0A4
:102510009E012A5F3F4F50E040E070E060E080E0C5
:102520000E94BC11182F882309F448C056018FEF70
:10253000A81AB80A60914B0270914C0280914D022A
:1025400090914E020E94C318643671058105910571
:1025500068F105E010E09E012F5F3F4F50E040E042
:1025600070E060E081E00E94BC11D82E65E070E070
:10257000C5010E945F1311E09E81981310E01D2198
:1025800041F10E94A81860934B0270934C02809313
:102590004D0290934E0285E0FE013196A6E4B2E032
:1025A00001900D928A95E1F711E013C065E070E0AB
:1025B000C5010E945F139E818913CBCF85E0F60190
:1025C0003196DE01119601900D928A95E1F7111175
:1025D000E2CF85E0E6E4F2E0D70101900D928A9522
:1025E000E1F7812F2696EAE00C94F81F0F931F93D2
:1025F000CF93DF93EC018B014BE752E10E9448122D
:10260000882331F04AE052E1B801CE010E9448121D
:10261000DF91CF911F910F9108950F931F93CF9347
:10262000DF93C0919601D0919701CE01019625E0EC
:10263000FB01DC0101900D922A95E1F765E070E065
:102640000E945F1388836E817F81888599850091C0
:1026500042021091430220914402309145026017DA
:1026600071078207930751F060934202709343020F
:1026700080934402909345020E94490FDF91CF91CD
:102680001F910F9108950E94971A0E94DB0C0E94DF
:10269000A41A08950E94A91A0E94550D0E94C31AF7
:1026A00008950E9435180E947D1A0E94C30C0E9452
:1026B00043130E944A130E94D10CFBCF0895FC01E2
:1026C000680F791F8FEF91E3E617F70709F4089574
:1026D0002191822728E030E087FF06C0880F8927F4
:1026E00021503109C9F7F0CF880FFACFCF93DF938C
:1026F000EC01FB018281882309F433C1C430FDE57C
:10270000DF07C0F5CB3F9CE5D90730F49E0122508E
:102710003C4524313105B0F50E94060C90937202BD
:1027200080937102C1318CE5D80709F4EEC008F03E
:1027300069C0C930ECE5DE0709F4D5C0C8F5C5307D
:102740008CE5D80709F4C7C000F5C330ECE5DE0717
:1027500009F4B9C008F0BBC0C230DC4509F4ADC013
:1027600080917102909172020E94140C0E940A06DC
:1027700080E008C0C236EDE5DE0771F2C63AFDE53D
:10278000DF0751F2DF91CF9108958091710280624D
:10279000C7309CE5D90709F493C08091710280612C
:1027A000C830DC4508F48CC080917102806488C018
:1027B000809171028B7FCD30FCE5DF0709F480C08A
:1027C00098F4809171028E7FCB309CE5D90709F493
:1027D00077C0809171028C60CC30DC4508F470C009
:1027E000809171028D7F6CC0809171028F7ECF309D
:1027F000FCE5DF0709F464C008F47BC08091710236
:102800008F7D5EC0CE3F9CE5D90709F47AC050F5B4
:10281000C531FCE5DF0709F486C098F480917102A8
:10282000837FC3319CE5D90709F44AC008F471C01D
:102830000E940A0690917102892F97FB87F98058B0
:102840003FC0CC3FFCE5DF0709F449C008F055C0A4
:10285000809172028160CB3FDC4509F081CF80938B
:1028600072027ECFC230EDE5DE0709F468C0A8F43D
:10287000C1158DE5D80709F452C0809172028360BA
:10288000C130DD4560F380917202982F9095917070
:102890008E7F892B90FB81F9E2CFC236EDE5DE0712
:1028A00009F451C0C63AFDE5DF0709F453C0C3304F
:1028B000DD4509F055CF80E043C080917102816011
:1028C000809371024DCF809171028260F9CF809127
:1028D00071028460F5CF809171028860F1CF8091A0
:1028E00072028260BCCF0E940A06809171028068E9
:1028F000E7CF80917102877FE3CF809172028E7F54
:10290000AECF809172028D7FAACF809171028F7BB2
:10291000D7CF0E940A06809171028F77D1CF809124
:1029200072028C7F9CCF8091710282FB992790F973
:1029300021E0922790FB82F990FB83F9C1CF81E0DF
:102940000E94A10C0DCF90917102892F8F7E94FF70
:102950008061B6CF90917102892F8E7F90FF816048
:10296000AFCF81E00FCFCF93DF93EB0186319C4552
:1029700011F50E940A0B9A81992399F08A7A91E0C5
:1029800009F490E090935302811109C089E20E94FA
:10299000E20A0E944B0B80E0DF91CF91089585E31E
:1029A000F6CF80915302811104C089E20E94EA0AA5
:1029B000F0CF85E3FBCF81E0EFCF0F931F93CF9351
:1029C000DF93C42FD22FFC0182818823C9F040936A
:1029D00056020E949C18909355028093540280E204
:1029E0008C0F883040F4C77081E001C0880FCA9511
:1029F000EAF70E94A003DF91CF911F910F910895F4
:102A000010915602141332C08091540290915502D5
:102A10000E94B4188837910548F5C0E2CD0F1D1704
:102A2000B9F080E2810F883040F4177081E001C076
:102A3000880F1A95EAF70E94A703C83048F481E08E
:102A40009D2F977001C0880F9A95EAF70E94A00306
:102A5000802F0E949703C83070F6D77081E001C0C4
:102A6000880FDA95EAF70E94A703C5CF80E28C0FA2
:102A7000883008F6C77081E001C0880FCA95EAF770
:102A8000F2CF0F939C01CB01243F4CE5340759F161
:102A9000A8F4293DFCE53F0701F12A3D4CE5340748
:102AA000D1F1283D3C4591F406E221EE41EE68ED7E
:102AB0007CE50E94DD1480E00F910895263FFCE53F
:102AC0003F07E9F0B0F0273F3C45F9F0FC01828177
:102AD000882339F110925602EFCF07E225EE45EE3A
:102AE00069ED7CE5E6CF06E221EE40EE64EF7CE5A1
:102AF000E0CF07E225EE44EE65EF7CE5DACF06E2B3
:102B000021EE42EE66EF7CE5D4CF07E225EE46EEFD
:102B100067EF7CE5CECF08E221E045EE6AED7CE58B
:102B2000C8CF81E0C9CF8EE1489B02C08150E1F758
:102B3000489BFECF0895589880E28A95F1F7589AFD
:102B40000895FC013BE03A95F1F798E020E080E041
:102B500031E040E14A95F1F7880F489B02C081605F
:102B6000232742E04A95F1F7000040E14A95F1F74A
:102B7000915079F790E19A95F1F799B132E03A9551
:102B8000F1F7000040E14A95F1F79170922720811A
:102B9000920F90830895A1E0B0E0E1EDF5E10C948F
:102BA000E01F19828C017C01E60EF11C0E151F0539
:102BB00041F481E09981911180E02196E6E00C9446
:102BC000FC1F0E949315CE0101960E94A115F801E9
:102BD00081938F01EBCF509A589A08955098589A44
:102BE000E89AE9E6F0E080818C7F80830895615067
:102BF000770B91E001C0990F6A95EAF720E031E088
:102C0000911108C0222391F0589A80E28A95F1F739
:102C100058980895492F482339F0589A232740E2BD
:102C20004A95F1F79695ECCF5898F9CF5898EDCF93
:102C3000FF920F931F93CF93DF93EC018C01060F4C
:102C4000111DC017D10729F4CDB7DEB7E5E00C940C
:102C5000FD1FF9900E949B1568E08F2D0E94F715CB
:102C6000F0CF1F920F920FB60F9211240F931F9364
:102C70002F933F934F935F936F937F938F939F9384
:102C8000AF93BF93EF93FF93CF93DF930F92CDB7A3
:102C9000DEB719820E949315CE0101960E94A115FC
:102CA000082F069506950695282F22952570902FBA
:102CB0009570290F922F937026952695920F98273D
:102CC00097708981982B09F05CC0043008F059C0D6
:102CD00080E18A95F1F7589A509A82E08A95F1F747
:102CE00000C0589888E0089F80011124D801AD5F8A
:102CF000BE4F1696ED91FC9117973097A9F0609111
:102D000096017091970114962D913C911597260F7D
:102D1000371F11968D919C911297680F791F13960A
:102D20004C9113978C910995F801ED5FFE4F6381EB
:102D3000662351F02091960130919701848195810D
:102D4000820F931F0E9418160E949B1580E18A959E
:102D5000F1F758985098589A80E18A95F1F7F80160
:102D6000ED5FFE4F6081662351F020919601309116
:102D7000970181819281820F931F0E94CB150E943F
:102D800093150F90DF91CF91FF91EF91BF91AF918C
:102D90009F918F917F916F915F914F913F912F9173
:102DA0001F910F910F900FBE0F901F9018950F93CA
:102DB0001F93CF93DF93EC0104970CF04CC0F89471
:102DC000509A589885E08A95F1F700009C2F9695C7
:102DD00095708C2F8570980F892F83709695969596
:102DE00023E0CC0FDD1F2A95E1F7980F8E01092B08
:102DF0000E949B1500C068E0802F0E94F71580E1BB
:102E00008A95F1F75098589A489B1EC087E090E049
:102E100048991CC0FE01ED5FFE4F63816623F9F007
:102E2000209196013091970184819581820F931FA3
:102E30000E94CB15811113C0509A589A7894DF9153
:102E4000CF911F910F91089500C0DECF019729F413
:102E5000509A589A789480E0F2CF00C0D9CF0E945F
:102E6000931580E28A95F1F75898509A80E18A95F7
:102E7000F1F7CD5FDE4F6881662351F02091960116
:102E80003091970189819A81820F931F0E941816B1
:102E90000E949B15789481E0D2CF90939901809302
:102EA0009801089590935D0280935C0208950E94BA
:102EB0004D11811103C0809157020895E0915C0289
:102EC000F0915D02309729F00190F081E02D099595
:102ED000089580E00895E0915C02F0915D023097E2
:102EE00021F00280F381E02D0995089520915A0286
:102EF00030915B022817390771F090935B02809341
:102F00005A02E0915C02F0915D02309721F0068058
:102F1000F781E02D099508952091580230915902CA
:102F20002817390771F09093590280935802E09165
:102F30005C02F0915D02309721F00084F185E02D74
:102F4000099508959C012E5F3F4FAC01485F5F4F8C
:102F500080E02417350709F40895F90191919F0144
:102F60009923B9F38F5FF5CF662349F0FC013296C0
:102F700008962191261729F0E817F907D1F780E084
:102F8000089581E008959C01FC0132969FEF80E056
:102F90004191461751F09F3F19F4411101C0982FFC
:102FA0008F5F8630A9F79F3F09F40895290F311DDF
:102FB00097FD3A95F90162830895FC0132960896CF
:102FC0002191261303C0DF0111971C92E817F9071E
:102FD000B9F708950E94C31708950E94DD17089558
:102FE000029626E0FC0111922A95E9F708950895CA
:102FF0000E94F7170895811106C081E080935E0258
:103000000E94F817089582E0F9CF83E080935E0272
:103010000E94F81708950E94FB17089581E080939D
:103020005E020E94F81708950E940E1808950895F0
:1030300008950E9418180895089508950E94171879
:103040000895CF930E941C180E94D4100E941D184E
:10305000C0E08C2F0E94AD0F811105C0CF5FCA3038
:10306000C1F7CF91089581E0FCCF85B7806885BF17
:1030700085B7806885BF08951F921FB61F921124DF
:103080008F939F93AF93BF9380915F02811113C081
:103090008091890290918A02A0918B02B0918C025A
:1030A0004196A11DB11D8093890290938A02A0933D
:1030B0008B02B0938C02BF91AF919F918F911F9023
:1030C0001FBE1F90189580919102843031F10E94AB
:1030D000390210925F0288E190E020E40FB6F89484
:1030E000A895809360000FBE2093600083B7817F16
:1030F000846083BF83B7816083BF7894889583B7EA
:103100008E7F83BF0FB6F894A89580916000886188
:1031100080936000109260000FBE08950E940A061E
:103120000E943E02089582E084BD93E095BD9AEF2F
:1031300097BD80936E0008952FB7F894809189020F
:1031400090918A02A0918B02B0918C022FBF0895BA
:103150002FB7F8946091890270918A0280918B0256
:1031600090918C022FBF08959C014FB7F8948091E5
:10317000890290918A02A0918B02B0918C024FBF7C
:10318000821B930B0895CF92DF92EF92FF922FB79D
:10319000F894C0908902D0908A02E0908B02F0905F
:1031A0008C022FBFA7019601261B370B480B590B2A
:1031B000CA01B901FF90EF90DF90CF900895789405
:1031C0001F921FB61F9211248F939F93AF93BF93AB
:1031D0008091890290918A02A0918B02B0918C0219
:1031E0000196A11DB11D8093890290938A02A0933C
:1031F0008B02B0938C02BF91AF919F918F911F90E2
:103200001FBE1F90189587E797E79093010880935A
:10321000000888E19AE00FB6F894A89580936000C2
:103220000FBE90936000FFCF88E19AE00FB6F8944C
:10323000A895809360000FBE90936000FFCF8091AF
:103240006B0208950895CF93DF93EC0181E08093A2
:10325000E9008FEF9091E800815095FD06C095ED53
:103260009A95F1F700008111F5CF8091E80085FF74
:1032700014C050E040E068E070E0CE010E94351BD1
:103280008091E8008E778093E80088E0FE01A3E655
:10329000B2E001900D928A95E1F7DF91CF91089508
:1032A0008093600270936202609361028091910248
:1032B000843001F582E08093E9008FEF9091E8007F
:1032C000815095FD06C095ED9A95F1F700008111AA
:1032D000F5CF8091E80085FF0DC050E040E063E04D
:1032E00070E080E692E00E94351B8091E8008E77C6
:1032F0008093E8000895BC0184E00E94501908956D
:10330000BC0183E00E9450190895089580919002B5
:10331000811109C00E94C51C0E94221D8091E200FB
:1033200084608093E20008951092900208950E94B4
:103330000E18089560918D0281E0611101C080E056
:103340000E94051808959091910281E0943009F04F
:1033500080E060918D020E940B18089542E061ECBC
:1033600081E00E94411C42E261EC82E00E94411C2B
:103370009091910281E0943009F080E060918D029B
:103380000E94FB17089580919302833009F461C075
:1033900030F48130D1F1823009F49EC008958A3032
:1033A00009F48AC08B3009F46FC0893009F050C02D
:1033B00080919202813209F04BC0809196029091E7
:1033C0009702029708F044C08091E800877F8093BD
:1033D000E8008091E80082FF37C09091F30080916F
:1033E000F200029731F48091F100813011F08630C3
:1033F00021F48091F10080936B028091E8008B773B
:103400008093E8000E94751C23C080919202813A4B
:10341000F9F48091E800877F8093E800809196021C
:1034200090919702892B61F468E083E692E070E066
:103430000E94841B8091E8008B778093E8000895B8
:1034400060E090E080E0F3CF809191028111C1CFE4
:10345000089580919202813AD9F7809196029091D5
:103460009702892BA9F78091E800877F8093E80075
:103470008091E80080FFFCCF809127018093F100CC
:103480008091E8008E77BCCF80919202813201F763
:103490008091960290919702892BD1F68091E80055
:1034A000877F8093E8000E94751C8091940280932E
:1034B00027010E940A06089580919202813241F606
:1034C0008091E800877F8093E8000E94751C8091BE
:1034D000950280936C02089580919202813A09F0DE
:1034E000B7CF8091E800877F8093E8008091E80063
:1034F00080FFFCCF80916C02C1CF84B7877F84BFEF
:103500000FB6F894A8958091600088618093600060
:10351000109260000FBE80E890E00FB6F8948093A0
:103520006100909361000FBE0E94141808950E94DC
:10353000C51C0E94221DE2EEF0E080818460808341
:1035400078940E94A11F08958BE191E00E94521788
:10355000089580919102853031F4809191028530F7
:1035600019F00E948E1808950E94631880918F02AE
:10357000882399F30E942118882379F30E941F1B46
:103580000E940A06EACF08950E94C71A0895292FBB
:1035900033272330310519F168F42130310509F45E
:1035A00044C02230310509F445C090E080E030E0AD
:1035B00020E025C02132310549F122323105A9F739
:1035C00080E490E029E632E061157105C1F082E304
:1035D00090E027E332E06130710589F0E6CF99276A
:1035E0008130910581F0009729F00297F1F6E4EC23
:1035F000F1E002C0E6EEF1E0849190E09F01FA0173
:10360000318320830895E8EDF1E0F6CF89E090E082
:103610002CEF31E06115710591F389E090E025E12F
:1036200032E06130710559F3C0CF82E190E025E2CC
:1036300032E0E5CF8BE390E02AEE31E0E0CF80E1AD
:1036400089BD82E189BD09B400FEFDCF8091D8001B
:103650008F7D8093D8008091E00082608093E000AD
:103660008091E00081FDFCCF0895AF92BF92CF9290
:10367000DF92FF920F931F93CF93DF936C01EB01C7
:103680008A010E94941CF82E811123C00115110596
:1036900039F0F80180819181C81BD90BC80ED91E61
:1036A000B12CA12C2097A9F08091E80085FD22C0C3
:1036B0008091E8008E778093E80001151105A1F054
:1036C000F80180819181A80EB91EB182A08285E0A7
:1036D000F82E8F2DDF91CF911F910F91FF90DF90EA
:1036E000CF90BF90AF9008950E94941C8823D1F290
:1036F000F82EEFCFF60181916F018093F1002197B1
:10370000FFEFAF1ABF0ACECFFC01809198029091D3
:10371000990286179707A0F06115710529F4909119
:10372000E8009E779093E80090E06115710551F4F0
:10373000911108C08091E80082FF34C080E00895B4
:10374000BC01F2CF809191028823C1F18530C1F193
:103750008091E80083FD30C08091E80082FDEACFCF
:103760008091E80080FFE1CF8091F3002091F2008A
:10377000382F6115710519F02830310558F091E0A6
:103780002830310509F090E02091E8002E77209351
:10379000E800CBCF81918093F100615071092F5FD8
:1037A0003F4FE7CF80919102882341F0853041F06F
:1037B0008091E80083FFBECF81E0089582E0089504
:1037C00083E00895FC0180919802909199028617F8
:1037D0009707A0F06115710529F48091E8008E77B4
:1037E0008093E80090E06115710551F4911108C0D3
:1037F0008091E80082FF35C080E00895BC01F2CFDF
:10380000809191028823C9F18530C9F18091E80047
:1038100083FD31C08091E80082FDEACF8091E8000D
:1038200080FFE1CF8091F3002091F200382F6115E5
:10383000710519F02830310558F091E02830310534
:1038400009F090E08091E8008E778093E800CBCF7C
:1038500084918093F1003196615071092F5F3F4F41
:10386000E6CF80919102882341F0853041F080912C
:10387000E80083FFBDCF81E0089582E0089583E0F2
:103880000895982F973028F08F708093E90081E099
:1038900008959093E900242F762F50E0981731F087
:1038A0007091EC002091ED005091F00021FD02C0DC
:1038B0009F5FE8CF3091EB003E7F3093EB0030917B
:1038C000ED003D7F3093ED003091EB00316030939F
:1038D000EB007093EC002093ED005093F0002091EA
:1038E000EE0027FDE5CF80E008958091920287FFEA
:1038F00013C08091E80082FF06C08091E8008B77BA
:103900008093E80004C0809191028111F2CF089564
:10391000809191028823D9F38091E80080FFF8CF4D
:103920008091E8008E77ECCF2091E4003091E500A3
:1039300095E6A9012091EC00822F817020FF06C03E
:103940008091E80080FF06C080E008952091E800A3
:1039500022FD1AC080919102882389F0853089F078
:103960008091EB0085FD0FC02091E4003091E500CF
:1039700042175307F9F29150E1F684E0089582E08E
:10398000089583E0089581E008950E94341D0E9407
:103990003C1DE0EEF0E0808181608083E8EDF0E0A6
:1039A00080818F77808319BCA7EDB0E08C918E7FEA
:1039B0008C9380818F7E80831092900208950F9364
:1039C0001F93CF93DF930E94341D0E943C1DC8EDCE
:1039D000D0E088818F778883888180688883888118
:1039E0008F7D888319BC1092910210928D021092E3
:1039F0008F0210928E0200EE10E0F80180818B7F22
:103A0000808388818160888342E060E080E00E945A
:103A1000411CE1EEF0E080818E7F8083E2EEF0E0F9
:103A2000808181608083808188608083F8018081CB
:103A30008E7F8083888180618883DF91CF911F9101
:103A40000F910895E8EDF0E080818F7E8083E7EDAF
:103A5000F0E080818160808384E082BF81E0809398
:103A600090020E94DF1C0895E8EDF0E080818E7FD7
:103A700080831092E20008951092DA001092E10023
:103A800008951F920F920FB60F9211242F933F9318
:103A90004F935F936F937F938F939F93AF93BF9356
:103AA000EF93FF938091E10082FF0BC08091E200D1
:103AB00082FF07C08091E1008B7F8093E1000E942C
:103AC000A01F8091DA0080FF19C08091D80080FF8C
:103AD00015C08091DA008E7F8093DA008091D90042
:103AE00080FF96C080E189BD82E189BD09B400FEF6
:103AF000FDCF81E0809391020E9486198091E100C0
:103B000080FF19C08091E20080FF15C08091E20023
:103B10008E7F8093E2008091E20080618093E200DA
:103B20008091D80080628093D80019BC85E0809392
:103B300091020E949A198091E10084FF2BC080912C
:103B4000E20084FF27C080E189BD82E189BD89B59B
:103B5000982F917080FFFBCF8091D8008F7D80934C
:103B6000D8008091E1008F7E8093E1008091E20097
:103B70008F7E8093E2008091E20081608093E2007A
:103B800080918D02882309F449C084E080939102DA
:103B90000E94A3198091E10083FF29C08091E20077
:103BA00083FF25C08091E100877F8093E10082E060
:103BB0008093910210928D028091E1008E7F80931C
:103BC000E1008091E2008E7F8093E2008091E2002C
:103BD00080618093E20042E060E080E00E94411C4E
:103BE0008091F00088608093F0000E949719FF9107
:103BF000EF91BF91AF919F918F917F916F915F9165
:103C00004F913F912F910F900FBE0F901F901895DD
:103C100019BC109291020E94941970CF8091E30018
:103C200087FD93E090939102B3CF1F920F920FB64E
:103C30000F9211242F933F934F935F936F937F9332
:103C40008F939F93AF93BF93CF93DF93EF93FF93A4
:103C5000D091E900DF708091EC00C82FC17080FD29
:103C6000C0E81092E9008091F000877F8093F00017
:103C700078940E94591E1092E9008091F0008860AB
:103C80008093F000CD2BCF70C093E900FF91EF91AE
:103C9000DF91CF91BF91AF919F918F917F916F9164
:103CA0005F914F913F912F910F900FBE0F901F90FA
:103CB0001895AAE2B0E0EFE5FEE10C94E31F82E97B
:103CC00092E02091F100FC012193CF01F2E08A39CA
:103CD0009F07B9F70E94C3198091E80083FF1EC1B6
:103CE00080919202909193029A3008F017C1E92FC7
:103CF000F0E0EF58FF4D0C94CE1F803899F08238D9
:103D000009F00CC1809196028F70873008F006C1CF
:103D10008093E9008091EB0085FB882780F9109261
:103D2000E90006C080918E0290918F02911182600D
:103D30009091E800977F9093E8008093F1001092B3
:103D4000F1008091E8008E77E5C0882309F4D3C0A4
:103D5000823009F0E3C0809194028111D6C0809135
:103D600096028F702FEF280F263008F0D7C080936F
:103D7000E9002091EB0020FFC8C0933031F480911E
:103D8000EB0080628093EB00C0C09091EB009061EB
:103D90009093EB0021E030E001C0220F8A95EAF712
:103DA0002093EA001092EA008091EB008860EACF4D
:103DB0008111B4C0109194021F778091E300807844
:103DC000812B8093E3008091E800877F8093E80057
:103DD0000E94751C8091E80080FFFCCF8091E30079
:103DE00080688093E30082E0111183E08093910268
:103DF00095C08058823008F091C0809194029091D3
:103E000095028C3D23E09207A1F583E08A838AE244
:103E100089834FB7F894DE01139620E03EE051E22B
:103E2000E32FF0E050935700E49120FF03C0E295A8
:103E3000EF703F5FEF708E2F90E0EA30C0F0C796D2
:103E40008D939D932F5F243159F74FBF8091E800E8
:103E5000877F8093E8006AE270E0CE0101960E94BD
:103E6000841B8091E8008B778093E80057C0C09650
:103E7000E7CF6091960270919702AE014F5F5F4F5E
:103E80000E94C41ABC01892B09F448C09091E80033
:103E9000977F9093E80089819A810E94E21BE1CF8D
:103EA0008038E1F58091E800877F8093E800809179
:103EB0008D028093F10045CF811130C09091940222
:103EC000923060F58091E800877F8093E8009093BE
:103ED0008D020E94751C80918D02882311F084E070
:103EE00005C08091E30087FDFACF81E080939102C5
:103EF0000E94AE1913C080919402813079F481E060
:103F0000933009F080E080938F021092E900809155
:103F1000E800877F8093E8000E94751C8091E8008C
:103F200083FF0AC08091E800877F8093E80080913A
:103F3000EB0080628093EB00AA96E3E00C94FF1FF5
:103F40000895CF93809191028823A1F0C091E90058
:103F5000CF709091EC00892F817090FD80E8C82B84
:103F60001092E9008091E80083FD0E94591ECF70F5
:103F7000C093E900CF9108950E94C51C1092910250
:103F80000895E8EDF0E08081806180838AE18A9580
:103F9000F1F700C08091D90081700895EE0FFF1FE6
:103FA0000590F491E02D09942F923F924F925F92E9
:103FB0006F927F928F929F92AF92BF92CF92DF9239
:103FC000EF92FF920F931F93CF93DF93CDB7DEB79E
:103FD000CA1BDB0B0FB6F894DEBF0FBECDBF099432
:103FE0002A88398848885F846E847D848C849B8489
:103FF000AA84B984C884DF80EE80FD800C811B8197
:10400000AA81B981CE0FD11D0FB6F894DEBF0FBEC5
:10401000CDBFED010895FB01DC0104C08D9101903D
:10402000801921F441505040C8F7881B990B08951E
:10403000FB01DC0102C001900D9241505040D8F7C5
:104040000895F999FECF92BD81BDF89A992780B560
:104050000895A8E1B0E042E050E00C945520262FEE
:10406000F999FECF92BD81BDF89A019700B402166E
:1040700039F01FBA20BD0FB6F894FA9AF99A0FBE1C
:1040800008950396272F0E9430200E942F20252F6D
:104090000E943020242F0C9430200196272F0E945C
:1040A00030200C942F20DC01CB01FC01F999FECFCC
:1040B00006C0F2BDE1BDF89A319600B40D924150B0
:1040C0005040B8F70895F894FFCFE903E9031A04C4
:1040D0001A04A704490449044904C3044F055E05B2
:1040E0005E057D1EA51E8E1FA51E8E1FD81EF91EE5
:0640F0008E1F501F5C1F33
:1040F600130201000000010000000000000005019D
:1041060000000004060000000000001F19231985A6
:104116001980197B19221901E200E900EA00B500AD
:10412600B600B700CD008301CC008A01920194014C
:104136002102230224022502260227022A02B300B4
:10414600B4006F007000818283E200E900EA00B5E6
:1041560000B600B700CD008301CC008A019201941D
:10416600012102230224022502260227022A02B383
:1041760000B4006F007000818283F4F5F6F73133E6
:08418600329497C6343538026B
:00000001FF
