:100000000C940F010C94EB150C942C010C942C0106
:100010000C942C010C942C010C942C010C942C01AC
:100020000C942C010C942C010C94FB1C0C94CF1DF3
:100030000C94F6170C942C010C942C010C942C01AC
:100040000C942C010C942C010C942C010C942C017C
:100050000C942C010C9499180C942C010C942C01E8
:100060000C942C010C942C010C942C010C942C015C
:100070000C942C010C942C010C942C010C942C014C
:100080000C942C010C942C010C942C010C942C013C
:100090000C942C010C942C010C942C010C942C012C
:1000A0000C942C010C942C010C942C0129001E00A2
:1000B0001F0020002100220000002E0014001A0062
:1000C00008001500170000002B00040016000700B0
:1000D00009000A002F00E1001D001B0006001900A6
:1000E0000500E200E000350050004F002A002C001F
:1000F000E0002D00270026002500240023002E000C
:100100003100130012000C0018001C000000340025
:1001100033000F000E000D000B003000E50038002A
:1001200037003600100011004C0030002F00510045
:1001300052002A002800E200120345007200670006
:100140006F00440061007300680000000C034F0062
:100150006D006B00620064000000040309040902E2
:100160003B00020100A0FA090400000103010100A4
:100170000921110100012240000705810308000147
:1001800009040100010300000009211101000122FE
:100190003200070582032000011201000200000066
:1001A00008EDFE606000010102000105010980A167
:1001B00001850319012AB700150126B700950175BD
:1001C000108100C0050C0901A101850419012AA0B4
:1001D00002150126A002950175108100C0050109D4
:1001E00006A101050719E029E71500250195087505
:1001F0000181029501750881010507190029FF1584
:100200000026FF00950675088100050819012905DB
:10021000950575019102950175039101C0001124A6
:100220001FBECFEFDAE0DEBFCDBF11E0A0E0B1E04E
:10023000EAE6F0E402C005900D92A839B107D9F7BB
:1002400022E0A8E9B1E001C01D92AA39B207E1F7A6
:100250000E940B130C941D200C9400000E94620F4E
:100260000895089581E0089581E008950E94340181
:10027000089508950E9439010895A5E0B0E0E3E4EF
:10028000F1E00C949D1F49835A8330919B01898131
:100290009A81311119C0662399F0222389F00E94B6
:1002A0009907182F682F89819A810E9475076981A3
:1002B0007A81812F0E94000E2596E3E00C94B91FED
:1002C0000E948707182FF3CF0E94990769817A81CE
:1002D000F1CFFC01262F408151816281738184819D
:1002E0000E943D01089581E00895CF93DF93EC01D2
:1002F00060E00E946901BE010E943A01DF91CF9146
:1003000008950E942E0108950E94640F08950E948E
:10031000C4050E9431012FEF84E39CE0215080400E
:100320009040E1F700C0000008950E9487010E94FC
:10033000BD1808950E9487010E94CE1808950F935A
:100340001F93CF93DF938C0161E00E946901EC0160
:10035000B8010E943601811106C080E0DF91CF9183
:100360001F910F910895B801CE010E94FB148823BC
:10037000A1F3B801CE010E943013882371F3B801B4
:10038000CE010E946D14882341F3F80182818823F5
:1003900061F0CB35FDE5DF0701F158F4C115ECE55F
:1003A000DE0791F0CF3DDC4591F0C8010E9432019B
:1003B000D5CFCD358DE5D80769F090F0C83ADD4549
:1003C000A1F70E949A01C9CF0E949501C6CF0E9451
:1003D000580CF7CF0E94990BE8CF0E94A30BE5CFF2
:1003E0000E94A70BE2CF0E94D3170E94100208952B
:1003F0000E9414020E94D817089508950E94FD01DA
:10040000089581E008950E94010208950895CF9310
:10041000C82F0E94FE018C2F0E940302CF910895E5
:1004200080E00E94070208950E9411170E940702AF
:1004300008950E94111790919A01981721F08093C6
:100440009A010E9407020895ABE0B0E0EAE2F2E010
:100450000C949E1F4F83588769877A878B87611119
:100460000E94E40A1E821D8285E0FE013796DE01AD
:10047000119601900D928A95E1F78C819D81892BCF
:1004800061F449815A816B817C818D819E810E94BA
:100490000D0A2B96E2E00C94BA1F89819A81892378
:1004A0008F3F79F3CE0101960E9473018111E9CF4C
:1004B000F0CFFC01808191810E94D3070895CF93F2
:1004C000C82F8823C9F08238C9F40E94111781FD12
:1004D00013C089E30E949C0A0E94050B2FEF81EE56
:1004E00094E0215080409040E1F700C0000089E393
:1004F0000E94A40A0E94050BCF9108958338A1F4AD
:100500000E94111780FDF8CF83E50E949C0A0E948B
:10051000050B2FEF81EE94E0215080409040E1F7F1
:1005200000C0000083E5E4CF8438A1F40E941117D5
:1005300082FDE2CF87E40E949C0A0E94050B2FEF08
:1005400081EE94E0215080409040E1F700C000002F
:1005500087E4CECF8CEF8C0F813A90F46C2F809192
:100560000001909101010E946E17882329F08C2FC1
:100570000E94A40A0E94050B8C2F0E949C0ABACFED
:1005800080E28C0F883048F4C77081E001C0880F8A
:10059000CA95EAF70E94C70AADCFEBE5EC0FE3304E
:1005A00040F4F0E0EA5AFE4F808190E00E9430175C
:1005B000A3CFC85AC73108F09FCFEC2FF0E0EE0F61
:1005C000FF1FE85DFE4F808191810E94461794CF06
:1005D000882309F44DC0823879F40E94111781FFF5
:1005E00047C089E30E949C0A0E94050B89E30E9490
:1005F000A40A0E94050B0895833859F40E9411172C
:1006000080FF36C083E50E949C0A0E94050B83E5AB
:10061000EECF843859F40E94111782FF29C087E475
:100620000E949C0A0E94050B87E4E1CF9CEF980F83
:10063000913AE8F290E2980F983050F4877091E088
:1006400001C0990F8A95EAF7892F0E94CD0AD1CF70
:100650009BE5980F933028F490E080E00E943017DB
:100660000895885A873120F490E080E00E94461770
:1006700008951F93CF93DF93182FEB010E945F0221
:10068000209739F4812F0E94E802DF91CF911F91CA
:1006900008958FE99FE00197F1F700C000002197CE
:1006A000EFCF70E060E0893311F460E570E00E9404
:1006B00039030895882321F00E94C70A0E94050B80
:1006C0000895882321F00E94CD0A0E94050B089509
:1006D000B0E0A0E0EEE6F3E00C94971F6C01D62F9B
:1006E000C72FFC011281F580F2949FE0F9220E944D
:1006F000BD0AE82E8823B9F0E12E1123A1F08C2F3A
:10070000807F803421F080E28D0F8830D0F080919E
:10071000720282FF16C082E00E94680B0E94BD0A2E
:1007200091E0E82EE926BC2EB2948FE0B822FBE0DF
:10073000FB1508F468C0EB2DF0E0E15EFF4D0C9472
:10074000881FE12CF0CF0C2F0F70C07F11F00295A5
:10075000007F112399F0002359F080E28D0F88303B
:1007600010F0D11107C0802F0E94C70A0E94050B0C
:100770008D2F41C0802F0E94D70AF8CF8D2F0E9465
:10078000E802002309F43FC080E28D0F883010F0AA
:10079000D11104C0802F0E94CD0A03C0802F0E9477
:1007A000DD0A0E94050B2FC00C2F0F70C07FC032D6
:1007B00011F00295007FDD2381F0D13009F463C090
:1007C000112309F46DC0FF2009F463C0F60185818F
:1007D00080FFCECF8F7085835CC08091720282FDD6
:1007E00033C0112359F0002329F0802F0E94C70A3B
:1007F0000E94050B80E00E945F0205C080E00E941D
:10080000E8020111C7CFEB2DE850FF0B349720F41D
:100810000E9411170E940702EE2089F00E94B90A77
:1008200080FD0DC0F60112820E94B30A0E947D066F
:10083000C6010E9488050E94B30A0E949F06CDB798
:10084000DEB7E9E00C94B31F112389F0F11006C064
:100850000E94E70A802B0E945A03D5CF21E0F212B2
:10086000F7CF0E94E70A802B0E94EE0ACCCFF1104E
:1008700006C00E94FB0A802F0E946103C4CF31E0B2
:10088000F31609F2F6CF112331F085E08F1508F445
:10089000BACF802FE0CF94E09F1508F4B4CFEBCF10
:1008A000FF2049F3D93349F4FFEF27EE33E0F1504D
:1008B00020403040E1F700C000008D2F0E94E80288
:1008C000A2CF8C2F86958695837069F0813009F0D0
:1008D0009ACF8D2F9C2F9370111102C090E080E071
:1008E0000E94461790CF8D2F9C2F9370111102C03C
:1008F00090E080E00E94301786CF8C2F837009F043
:1009000041C0111180CF4D2F429546954770440F3D
:10091000440F0D2F0F7010E030E020E0042E04C0D3
:10092000000F111F221F331F0A94D2F760E070E0FE
:10093000CB01D4FF0FC06FE070E080E090E004C016
:10094000660F771F881F991F4A95D2F7609570959B
:1009500080959095C695C695C370602B712B822BA0
:10096000932BC23049F058F4C13019F00E94280688
:100970004ACF0E94150647CF0E943B0644CF0E94F3
:10098000120641CF8695112311F08C2F8170882398
:1009900009F439CF4D2F429546954770440F440FC7
:1009A0000D2F0F7010E030E020E0042E04C0000F87
:1009B000111F221F331F0A94D2F760E070E0CB01B1
:1009C000D4FF0FC06FE070E080E090E004C0660FDD
:1009D000771F881F991F4A95D2F76095709580956B
:1009E0009095C695C695C370602B712B822B932B67
:1009F000C23049F058F4C13019F00E94F80603CF14
:100A00000E94E50600CF0E940B07FDCE0E9454060F
:100A1000FACECF70112329F08C2F0E947D068D2FE6
:100A20001ACF8D2F0E9461038C2F0E949F06EBCE60
:100A3000D23F51F160F4D03FB9F0D13F81F01123A2
:100A400009F449C0F11094CE8C2F8F7121C0D33F8F
:100A500011F1D43FA1F78091720282FD26C08C2F44
:100A60008F71112311F314C0112349F084E08F1505
:100A700008F4C9CE8C2F8F710E94C306C4CE95E0B6
:100A80009F1508F4C0CEF6CF8C2F8F711111CDCFEA
:100A90000E947D06B8CE112329F08C2F8F710E9401
:100AA0006706B1CE0E946106AECE112349F0CF7128
:100AB0008C2F0E947D0663E08C2F0E944A0BA3CEF0
:100AC00081E00E94680BE1E0EF1508F09CCE82E027
:100AD0000E94680B98CEF110E5CE8C2F8F71A5CFB8
:100AE0000F931F93CF93DF93EC01688179818A8103
:100AF0000E94DE078C010E941E070E941106B801A9
:100B0000CE010E946803DF91CF911F910F9108954C
:100B1000CF93DF93EC018B819C81892B29F0888115
:100B2000998189238F3F51F4DF91CF910895CE01B0
:100B30000E947005CE010E947501F6CFCE010E9481
:100B40009F018111F4CF0E94BD0A882369F38A8135
:100B5000882351F38091720282FFE6CF82E00E94E7
:100B6000680BE2CF90E080E00E94301790E080E0D8
:100B70000E9446170E94E40A0E94050B08950E94F5
:100B8000AC0A0E94B20508950E94D40A0E94BF05D3
:100B9000089592959F70963091F058F4925F9F70EF
:100BA000923058F4803F19F030F4883E30F481E000
:100BB00008959A5FF4CF843FD1F380E00895883E92
:100BC000B0F3813FD1F7F3CFFC01808191810E9486
:100BD000D3070E94C9050895A5E0B0E0E2EFF5E073
:100BE0000C949E1F2596E2E00C94BA1FA6E0B0E09C
:100BF000ECEFF5E00C949E1F2696E2E00C94BA1FF1
:100C000008950E94000608950E9401066093CD0198
:100C10007093CE018093CF019093D0010E94B205D2
:100C2000089508950E94040608950F931F9300915C
:100C3000CD011091CE012091CF013091D001602BD8
:100C4000712B822B932B0E9404061F910F91089504
:100C50000F931F930091CD011091CE012091CF01F0
:100C60003091D00160237123822393230E940406D4
:100C70001F910F9108950F931F930091CD01109133
:100C8000CE012091CF013091D001602771278227BA
:100C900093270E9404061F910F9108950E94000659
:100CA00008950E944E0608950E9451066093C9015E
:100CB0007093CA018093CB019093CC010E94B2053E
:100CC000089560E070E0CB010E94540608950F93F0
:100CD0001F9341E050E060E070E08A019B0104C096
:100CE000000F111F221F331F8A95D2F7C901B801C7
:100CF0000E9454061F910F9108950F931F9341E096
:100D000050E060E070E004C0440F551F661F771F7D
:100D10008A95D2F78091C9019091CA01A091CB0127
:100D2000B091CC018A019B01082B192B2A2B3B2B5C
:100D3000C901B8010E9454061F910F9108950F93A5
:100D40001F9341E050E060E070E004C0440F551F85
:100D5000661F771F8A95D2F7CB01BA01609570950F
:100D6000809590950091C9011091CA012091CB0105
:100D70003091CC0160237123822393230E94540677
:100D80001F910F9108950F931F9341E050E060E091
:100D900070E004C0440F551F661F771F8A95D2F775
:100DA0008091C9019091CA01A091CB01B091CC0171
:100DB0008A019B01082719272A273B27C901B80167
:100DC0000E9454061F910F9108950F931F93009155
:100DD000C9011091CA012091CB013091CC01602B47
:100DE000712B822B932B0E9454061F910F91089513
:100DF0000F931F930091C9011091CA012091CB015B
:100E00003091CC0160237123822393230E945406E6
:100E10001F910F9108950F931F930091C901109195
:100E2000CA012091CB013091CC0160277127822724
:100E300093270E9454061F910F9108950895262F1D
:100E4000277091E001C0990F2A95EAF723E0769583
:100E500067952A95E1F725E0269FF001279FF00D81
:100E60001124E40FF51F50E040E0682F70E08191FD
:100E7000DF0111979B01042E02C0369527950A9435
:100E8000E2F7217021952827292328272C934F5FEB
:100E90005F4F4530510559F70895A82FA77023E0FB
:100EA000969587952A95E1F725E0289FF001299FDF
:100EB000F00D1124E60FF71F50E040E080E0219193
:100EC00030E00A2E02C0369527950A94E2F7217089
:100ED0003327042E01C0220F0A94EAF7822B4F5FBA
:100EE0005F4F4530510559F70895262F9A3070F419
:100EF000873060F4682F70E087E0989F600D711D67
:100F000011244CE951E0822F0E941F070895292FD8
:100F10009A3068F4873058F490E06CE971E037E07B
:100F2000239F800D911D11240E944D07089580E09C
:100F30000895B0E0A0E0EFE9F7E00C94971F8C0172
:100F4000C090C901D090CA01E090CB01F090CC01D3
:100F50008091CD019091CE01A091CF01B091D001AF
:100F6000C82AD92AEA2AFB2ACFE1D0E0BC2ED70131
:100F7000C6010C2E04C0B695A795979587950A943F
:100F8000D2F780FD09C0219788F7B12C8B2DCDB702
:100F9000DEB7E9E00C94B31FB8018C2F0E941B0E42
:100FA000019789F3F3CFCF93DF93EC010E94990768
:100FB000BE010E941B0EDF91CF9108951F93CF9326
:100FC000DF93EB0190919B01992339F0CB010E94B3
:100FD000D307DF91CF911F910895882369F0CB014A
:100FE0000E949907182F682FCE010E947507BE0135
:100FF000812F0E941B0EEDCFCB010E948707182F77
:10100000F6CF1F93CF93DF93C091D10116E080916B
:10101000D2018C1304C0DF91CF911F910895D0E0CD
:101020001C9FF0011D9FF00D1124ED52FE4F4081D9
:10103000518162817381848195810E94F605219698
:10104000C770E5CF40910302509104026091050200
:101050007091060280910702909108020E94F605A5
:1010600008951F93CF93DF9380910802807F09F04A
:1010700049C080910502882309F444C08091D101C0
:10108000C091D2016091030270910402A091060206
:10109000B0910702D62FD72316E0C81799F190E038
:1010A000109711F0DF3F19F401968770F6CF189F63
:1010B0009001199F300D1124F901ED52FE4F41812D
:1010C0004713F2CF40814613EFCF42814111ECCF5D
:1010D000438154814A1B5B0B4837510528F78091A7
:1010E00008028F70806180930802F901E852FE4F78
:1010F00080818F708061808383E092E00E94880508
:101100000E940108DF91CF911F910895A1E1B0E005
:10111000ECE8F8E00C94961F8C0185E0F801DE0104
:101120001D9601900D928A95E1F7F801E28083E027
:10113000C82E82E0D82E60910602709107026115D8
:10114000710509F44EC19091030220910402892F88
:1011500082238F3F09F445C140815181A380B4802F
:10116000F0900502F501E61BF70BFF2009F4EAC039
:1011700080910802382F307FE837F10508F0A3C0CE
:1011800031116DC0FE2C251316C0941314C0E1104C
:1011900012C08F708061809308020E942208C601ED
:1011A0000E94880580910802F80185838F2D619641
:1011B000EAE00C94B21FA114B10429F0842F852316
:1011C0008F3F09F027C180E0F82FF170DF2E80FFFC
:1011D0003CC08091D1012091D20136E0821315C02C
:1011E0004D875E878D859E850E94D307292F229586
:1011F0002F702230F0F0243018F59F70F1F0F801D4
:101200009581907FD1F4D12C1EC090E0389FF001E1
:10121000399FF00D1124ED52FE4F6181651306C018
:101220006081641303C06281E6120FC0019687706B
:10123000D5CF9F7011F0882331F3805E883018F38A
:10124000C8010E948805FD2CB1CFEE2009F4AECF75
:1012500080910802816080930802F12CA7CF2513AA
:1012600006C0941304C0F801EE2009F487C0C80139
:101270000E94E405882319F1EE2009F1809108020B
:10128000803270F0209103023091040238872F835E
:101290001986BB86AA868C87CE0107960E94880590
:1012A00086E0F801A3E0B2E001900D928A95E1F7A3
:1012B0000E9431080E942208FF24F39477CFC801CE
:1012C0000E948805F9CF311113C07A2DB98AA88AF6
:1012D0006E2D89890E94EC0583E092E00E948805CA
:1012E00086E0F60111928A95E9F70E942208B5CFAF
:1012F00025130FC094130DC0E1100BC0F8018583B6
:10130000C8010E94880586E0F60111928A95E9F7E6
:101310004DCFC8010E94E405882389F2EE2079F2BE
:1013200080910802803208F4BBCF209103023091F3
:1013300004023A8329831B82BD82AC828E83CE0154
:101340000196ACCFE837F10508F03EC0FE2CEE2048
:1013500009F4B5CF25132AC0941328C08091080240
:1013600080FD1BC0982F907FC1F0F8018583903FCE
:1013700031F0982F907F905F8F70892B8583C80103
:101380000E94880586E0F801A3E0B2E001900D928A
:101390008A95E1F70E94220809CF86E0F801A3E0D0
:1013A000B2E001900D928A95E1F700CFC8010E944A
:1013B000E405811175CF8091080281608093080255
:1013C000C8010E948805F2CE7A2DB98AA88A6E2DAE
:1013D00089890E94EC0586E0F60111928A95E9F769
:1013E000D9CFEE2009F46BCFC8010E94E405F82E96
:1013F000882309F464CF86E0F801A3E0B2E001900D
:101400000D928A95E1F783E092E00E9459020E94D2
:101410003108C0CF81E08E25D7CEACE0B0E0E3E16B
:10142000FAE00C949D1F4F83588769877A878B87D2
:101430009C87CE0107960E948608882369F08A85DA
:101440009B85892B39F04F815885842F85238F3FC9
:1014500009F06BC016E05FC086E0FE013796DE0142
:10146000119601900D928A95E1F78A859B85892BCB
:1014700089F388859F8189238F3F61F32091D20171
:1014800030E0C9010196877099274091D101481732
:10149000190671F40E94C4051092D2011092D10174
:1014A00086E0E3E0F2E0DF011D928A95E9F7D2CF12
:1014B00096E0929FD001939FB00D1124AD52BE4F84
:1014C000FE01319601900D929A95E1F78093D20139
:1014D0000E940108BFCF819FC00111248D529E4FF1
:1014E0000E9486088823E9F0E091D1011E9FF00157
:1014F0001124ED52FE4F40815181628173818481BC
:1015000095810E94F6058091D10190E00196877047
:1015100099278093D1018091D1019091D2018913B3
:10152000DACF2C96E3E00C94B91F69857A858B8518
:101530009C850E94F6058ECF682F809100019091C6
:1015400001010E94A4170895682F809100019091D5
:1015500001010E94A7170895809100019091010157
:101560000E94AA1708958091110285958595859509
:1015700008958091110287700895909111029770DB
:1015800081E009F480E0089580911C020895909113
:101590001C02892B80931C020895809590911C0257
:1015A000982390931C02089510921C020895909124
:1015B0001B02892B80931B020895809590911B023A
:1015C000982390931B02089510921B020895809116
:1015D0001202089508950E94EA0A089590917202F5
:1015E00092FF08C090911202981721F08093120286
:1015F0000E94EB0A089580911202882329F010922C
:10160000120280E00E94EB0A0895CF93DF93E091ED
:101610000001F091010180911C028083E0910001A2
:10162000F0910101808190911B02892B8083909120
:101630001202992381F0E0910001F0910101808173
:10164000892B808380910001909101010E945C1799
:1016500081110E94FB0AC0910001D091010148E074
:1016600050E069E072E0CE010E94C51F892B59F05D
:1016700088E0FE01A9E0B2E001900D928A95E1F7C1
:10168000CE010E942517DF91CF91089508950E9401
:10169000460B08959091720292FF11C098E0899FC5
:1016A00090011124622B609311020E947D068091AB
:1016B00011028595859585950E94470B08950E9496
:1016C0007D0608951092110280E00E94470B089554
:1016D000909111028095892380931102282F277001
:1016E00091F4282F082E000C330B9217130659F093
:1016F0009091720292FF07C08595859585950E940D
:101700009F060E94620B08959091720292FB22271D
:1017100020F9281769F080FB92F99093720280916A
:101720007102909172020E94CE0B82E00E94680BBF
:1017300008958091720282FB882780F991E08927C1
:101740000E94840B089581E00E94840B089580E03C
:101750000E94840B089590E080E00E94E31F21E046
:10176000883E9E4F09F020E0822F089582E090E0AD
:101770000E94DB1F089583E090E00E94DB1F089524
:10178000CF9384E090E00E94DB1FC82F82E290E0BC
:101790000E94DB1F982F8C2FCF910895CF93C92FD4
:1017A000682F84E090E00E94E91F6C2F82E290E0B5
:1017B0000E94E91FCF910895AB01BC018FE090E03A
:1017C0000E94FB1F0895AB01BC0183E190E00E94E1
:1017D000FB1F089560E070E0CB010E94E30B0895C9
:1017E00060E070E0CB010E94DC0B0E94EA0B0895E0
:1017F00068EE7EEF90E080E00E94072060E082E0EB
:1018000090E00E94E91F60E083E090E00E94E91F01
:101810001092CD011092CE011092CF011092D00102
:1018200060E084E090E00E94E91F64E082E290E0E2
:101830000E94E91F60E085E090E00E94E91F60E0FF
:1018400086E090E00E94E91F6FEF87E090E00E9441
:10185000E91F40E050E0BA0188E090E00E94FB1FE1
:1018600060E08DE090E00E94E91F40E050E0BA01A6
:1018700088E190E00E94FB1F60E087E190E00E9419
:10188000E91F40E050E0BA018CE190E00E94FB1FAC
:1018900070E060E080E290E00E94072040E050E0CD
:1018A000BA0188E190E00E94FB1F0E94F00B0895AE
:1018B0000E94F80B0895682F8EE090E00E94E91FC7
:1018C00008950E94621860932B0270932C028093FB
:1018D0002D0290932E02609327027093280280932A
:1018E000290290932A020895089508950E94750C84
:1018F000089508950E94790C08958AE39FE00E945C
:1019000007170E94740C0E94760C08950E9407111C
:101910000895089508950E94890C0E948A0C0895E4
:101920000E943D0F0E94060208950E944D180E94D9
:10193000FA0E0E9422110E946B100E94900C0E94CD
:1019400018130E942C110E947A0C0895AAE0B0E0AE
:10195000ECEAFCE00C94941F0E948E10982E8111EA
:101960000E94610C8DE1A82E82E0B82E10E000E00C
:10197000802E802F0E94670FE82EF501C1905F0135
:10198000C816B1F180912F0281FD0E946D0FD12CFC
:10199000FF24F394CE248C2D8F2129F10E94860CF4
:1019A000882399F0DE828F82EF2081E009F480E0C5
:1019B00088870E9456188160782F9A8789874E8180
:1019C0005F8168858A850E942402F801E35EFD4FED
:1019D0008081F826F08281E0911001C080E02A9693
:1019E000ECE00C94B01FD394FF0CF7E0DF12D3CFE0
:1019F0000F5F1F4F0A30110509F0BACF8FEF8983AF
:101A00008A831B820E9456188160782F9D838C8365
:101A100049815A816B818D810E942402DCCF0E9412
:101A2000A60C0E9407110E9419020895CF93DF931C
:101A30000E94200EEC01811522E59207E8F5811540
:101A400031E5930708F0ACC0883E910510F5803E63
:101A5000910570F5883A910570F4853A910508F082
:101A600078C08130910521F1009711F1049700F5BC
:101A7000D0E0C0E01DC08F3B9105D0F7C85AD0E040
:101A8000CC0FDD1FC75ADE4F0990D881C02DD4641A
:101A90000FC0811540E5940708F066C0C11580E4C9
:101AA000D80708F05EC0CE019A9581159F4100F7D6
:101AB000CE01DF91CF910895811536E5930718F592
:101AC000811545E5940708F083C0C11584E5D80762
:101AD00008F079C09C2F969596959E012370332728
:101AE000C115D34508F461C0C1E0D0E002C0CC0FFD
:101AF000DD1F2A95E2F730E2939FC0011124C82B25
:101B0000D92BDA68D5CFC1158AE5D80778F4C11585
:101B100099E5D90708F066C0C11528E5D20708F491
:101B2000A7CFDC2FCC27C06FD06AC2CFCE01905692
:101B30008115904208F09CCF8D2F8F710E94B70EB7
:101B400090E0982F882788279F719C012C2BE90112
:101B500047C0C55AD0E0C957DE4FC881D0E0D06435
:101B6000A7CFDF70D06AA4CFE4E096958795EA9579
:101B7000E1F783702C2F26952695237040E2249F51
:101B800090011124382B8C2F8370C1E0D0E002C06B
:101B9000CC0FDD1F8A95E2F7C22BD32BDC6888CFF0
:101BA000D82FCC27C16FD06A83CFC1E0D0E002C06C
:101BB000CC0FDD1F2A95E2F720E2929FC00111248D
:101BC000C82BD92BEBCFDC2FCC27C46FD06A70CFBA
:101BD0000E94B70EC82FD0E0DC2FCC27CC27DF71B6
:101BE000D06266CF8C2F8F700E94B70E34E0D695EE
:101BF000C7953A95E1F7CF709C2FEC01D06958CF8B
:101C0000972F7A30A8F4673098F470E027E0929F1D
:101C1000600D711D1124FB0196E4899FE00DF11DFB
:101C20001124EE0FFF1FE455FF4F85919491089505
:101C300080E090E008950E94000E0E94160D089525
:101C400082389105B1F1B0F48133910509F475C082
:101C500048F48932910509F469C08A32910509F482
:101C600073C008958533910509F459C089339105EE
:101C700001F10895833E9105A9F138F4803E910564
:101C8000F9F0823E910549F10895863E9105A9F14A
:101C9000873E9105C9F1843E910519F520917202A4
:101CA00021FF1FC08091710284FD14C087EE90E077
:101CB0000895209171022370A1F080EE90E00895C4
:101CC0002091710220FD47C03091720230FF09C09F
:101CD00024FF44C090E080E004C02091710222FD06
:101CE000F7CF08952091710222FD3BC0309172021E
:101CF00030FDE3CF24FFF5CFEDCF2091710223FF1C
:101D0000F0CF24FDE7CFD2CF2091710223FD2CC06C
:101D10003091720231FFEECF84EE90E00895209171
:101D2000710225FFDECF89E290E0089520917102D3
:101D300025FFD7CF85E390E008952091710226FF1B
:101D4000D0CF8AE290E008952091710226FFC9CF9A
:101D500081E390E0089589E390E0089583EE90E0B8
:101D6000089582EE90E0089586EE90E008959091B7
:101D7000710292FF06C0282F28712830F9F4877F5E
:101D8000846093FF06C0282F28712831F1F4877EE4
:101D900084612091720220FF06C0382F38713830DC
:101DA000D9F4877F816021FF06C0282F2871283150
:101DB000D1F4877E816194FD877E0895282F247158
:101DC0002430F9F68B7F8860DCCF282F24712431F2
:101DD00001F78B7E8861DDCF382F3171313019F7F3
:101DE0008E7F8860E0CF282F2171213121F78E7EF0
:101DF0008861E1CF10926D0210926E0210926F0214
:101E0000109270020895CF92DF92EF92FF926B01D1
:101E10007C010E94071181110EC00E946218C61A2F
:101E2000D70AE80AF90AC0926D02D0926E02E092D7
:101E30006F02F0927002FF90EF90DF90CF900895C4
:101E40000F931F930E940711882329F00E946218A4
:101E50001F910F9108950E94621800916D021091D8
:101E60006E0220916F0230917002600F711F821F0D
:101E7000931FEECF80E0089508950E94AB0B81116F
:101E800002C00E94580C0E94B60B80932F020E9441
:101E9000C00B90937202809371020E943C0F0E94CB
:101EA000BB0B682F70E090E080E00E94120660910A
:101EB000C9017091CA018091CB019091CC010E941F
:101EC00051060895089508950E94630F0895E82F1C
:101ED000F0E0E258FD4F80810895089580EA8A95E8
:101EE000F1F7089500C008950E946E0F08950895B7
:101EF0000E94770F0895A5E0B0E0E1E8FFE00C94C0
:101F00009A1F0E940711F82E60918802882309F415
:101F100040C085E0E82E8E010F5F1F4FF8018E2D27
:101F200011928A95E9F7862F90E0B80182589D4F6B
:101F30000E943A118823B9F08091730290E045E045
:101F400050E0B80182589D4F0E94C51F21E02093A8
:101F50003002892B91F4F12C0E9484018F2D25965B
:101F6000E6E00C94B61F809130028823A1F3F801BB
:101F70001192EA94E9F710923002A0917302B0E056
:101F8000A258BD4F85E0F80101900D928A95E1F7C6
:101F9000E3CF70E062587D4F8091730290E08258E9
:101FA0009D4F0E94C1110E94780FD8CFF894E82F5E
:101FB000E295EF70F0E031A1282F2F7081E090E0E2
:101FC00001C0880F2A95EAF7982F9095932391A343
:101FD00092A1892B82A3789408950F931F93CF9396
:101FE000DF93C1E9D1E089918F3F11F00E94D60FB4
:101FF00081E0C639D807B9F7CAE8D1E001E911E0B4
:1020000089918F3F11F00E94D60F0C171D07C1F761
:10201000DF91CF911F910F910895B0E0A0E0E3E12F
:10202000F0E10C94981FEC01D62E062F10E0C801A9
:102030008F569E4F7C01FC0180818F3F09F444C084
:10204000F894E82FE295EF70F0E091A18F7021E015
:1020500030E001C0220F8A95EAF7892F822B81A3F5
:1020600082A12095282322A378940E94720FEAE887
:10207000F1E031E0C12C21912F3F59F1A22FA2951F
:10208000AF70B0E090968C9190E02F7002C0959563
:1020900087952A95E2F780FD1CC0832FC82A330F4D
:1020A00081E0E139F80739F7F70180818F3F11F0BE
:1020B0000E94D60F61E0C11001C060E08D2D0E942A
:1020C000740FC00FD11FC882CDB7DEB7E8E00C9403
:1020D000B41F80E0E3CF809102018091020195E07E
:1020E000811190E09093880285E0891B80937302B0
:1020F0000E94ED0F8AE0EEE7F2E0DF01982F1D92DB
:102100009A95E9F7E4E7F2E0DF011D928A95E9F795
:1021100085E00E94D1100E9481010895AAE0B0E0FC
:10212000E4E9F0E10C949A1F8E010F5F1F4F8AE0E3
:10213000F80111928A95E9F7F12C6F2DC8010E94E0
:102140000D10F394F5E0FF12F8CF4AE050E0B8012B
:1021500084E792E00E94C51F7C0121E0892B09F4ED
:1021600020E0E114F10441F08AE0F801A4E7B2E0D4
:1021700001900D928A95E1F76091880270E06258B3
:102180007D4F45E084E792E00E94D21081E090E02C
:10219000E114F10411F40E947B0F2A96E6E00C94FE
:1021A000B61F0895FF920F931F93CF93DF93F82EDE
:1021B000092F162FD72FC42F222349F081E08093B7
:1021C00033020E945618909332028093310280911C
:1021D00033028823A1F080913102909132020E9453
:1021E0006E18059760F0EF2DF02FA12FBD2FCE0FA9
:1021F000DF2FD11DEC17FD0739F410923302CDB754
:10220000DEB7E5E00C94B71F81918D93F3CF8091F9
:102210003602811107C00E947B1F882351F081E0A4
:102220008093360281E090913602913009F080E08F
:10223000089582E0809336020E94761FF3CF0E94B9
:10224000071108950E941F11809302010E94071137
:1022500081110E94701108950E940711811102C01E
:102260000E947311089581E0909137029A3008F02E
:1022700080E008950F931F93CF93DF93EC018B01C0
:10228000809137028A30B8F4B801CE010E94BE11A5
:10229000C82F811122C0809137028F3FB9F40E946C
:1022A000561890933502809334028C2FDF91CF9192
:1022B0001F910F91089580913402909135020E94F0
:1022C0006E18843F914000F7C0E0EFCF8F5F80939E
:1022D00037028A3020F7C1E0E8CF10923702E5CF0D
:1022E0000E94A51508950E94A8150895B0E0A0E0E9
:1022F000ECE7F1E10C94991F7901C82F880FDD0BF1
:1023000041155105A9F0FE0193E0EE0FFF1F9A95CC
:10231000E1F7ED5FFE4F81819281885C9D4F2081C6
:1023200030E04217530708F49A01A9010E94D21F16
:10233000CE010E949116D82E8823D1F001151105E7
:10234000B9F083E0CC0FDD1F8A95E1F7FE01ED5F68
:10235000FE4F438150E00417150708F4A801CD5F34
:10236000DE4F6C817D81685C7D4FC7010E94D21F6A
:102370008D2DCDB7DEB7E7E00C94B51F0E94B012EB
:1023800008950E94C7120895A4E0B0E0EAECF1E1DC
:102390000C949C1F60914F027091500280915102E9
:1023A000909152020E947D1811E0643671058105FA
:1023B000910518F10E94200F6E5F7F4F8F4F9F4F46
:1023C00069837A838B839C8310E000E030E020E017
:1023D00044E050E0BE016F5F7F4F82E00E947611C3
:1023E000182F882351F00E94621860934F02709357
:1023F00050028093510290935202812F2496E4E080
:102400000C94B81FB0E0A0E0E8E0F2E10C94961F55
:102410007C015B016A010E94331101E010E0882316
:1024200011F00AE010E0C1E0D0E0B501C701F6010B
:102430000995811104C021960C171D072CF4CDB706
:10244000DEB7EAE00C94B21FCC9F9001CD9F300D17
:10245000300D112490E080E045E34A95F1F700004B
:10246000019682179307C1F7E0CFA6E0B0E0EBE357
:10247000F2E10C94961F7B01C0909601D0909701D9
:1024800001E010E09E012A5F3F4F50E040E070E025
:1024900060E080E00E947611182F882309F448C07C
:1024A00056018FEFA81AB80A60914B0270914C0246
:1024B00080914D0290914E020E947D186436710504
:1024C0008105910568F105E010E09E012F5F3F4F07
:1024D00050E040E070E060E081E00E947611D82E8C
:1024E00065E070E0C5010E94191311E09E81981308
:1024F00010E01D2141F10E94621860934B0270931D
:102500004C0280934D0290934E0285E0FE0131967D
:10251000A6E4B2E001900D928A95E1F711E013C0B4
:1025200065E070E0C5010E9419139E818913CBCF2D
:1025300085E0F6013196DE01119601900D928A95A3
:10254000E1F71111E2CF85E0E6E4F2E0D701019076
:102550000D928A95E1F7812F2696EAE00C94B21F3E
:102560000F931F93CF93DF93EC018B0145E352E16F
:102570000E940212882331F044EC51E1B801CE01EF
:102580000E940212DF91CF911F910F9108950F9336
:102590001F93CF93DF93C0919601D0919701CE0105
:1025A000019625E0FB01DC0101900D922A95E1F7EF
:1025B00065E070E00E94191388836E817F818885B1
:1025C000998500914202109143022091440230917A
:1025D0004502601771078207930751F0609342022A
:1025E0007093430280934402909345020E94030F2C
:1025F000DF91CF911F910F9108950E94511A0E946F
:10260000950C0E945E1A08950E94631A0E940F0D95
:102610000E947D1A08950E94EF170E94371A0E94A7
:102620007D0C0E94FD120E9404130E948B0CFBCFB4
:102630000895FC01680F791F8FEF91E3E617F70704
:1026400009F408952191822728E030E087FF06C031
:10265000880F892721503109C9F7F0CF880FFACFA9
:10266000CF93DF93EC01FB018281882309F433C10E
:10267000C430FDE5DF07C0F5CB3F9CE5D90730F45A
:102680009E0122503C4524313105B0F50E94C00B1B
:102690009093720280937102C1318CE5D80709F4DE
:1026A000EEC008F069C0C930ECE5DE0709F4D5C01A
:1026B000C8F5C5308CE5D80709F4C7C000F5C330AC
:1026C000ECE5DE0709F4B9C008F0BBC0C230DC4558
:1026D00009F4ADC080917102909172020E94CE0BFC
:1026E0000E94C40580E008C0C236EDE5DE0771F245
:1026F000C63AFDE5DF0751F2DF91CF910895809151
:1027000071028062C7309CE5D90709F493C08091BB
:1027100071028061C830DC4508F48CC08091710280
:10272000806488C0809171028B7FCD30FCE5DF072B
:1027300009F480C098F4809171028E7FCB309CE5C3
:10274000D90709F477C0809171028C60CC30DC45E8
:1027500008F470C0809171028D7F6CC0809171020D
:102760008F7ECF30FCE5DF0709F464C008F47BC03E
:10277000809171028F7D5EC0CE3F9CE5D90709F440
:102780007AC050F5C531FCE5DF0709F486C098F43E
:1027900080917102837FC3319CE5D90709F44AC057
:1027A00008F471C00E94C40590917102892F97FBB3
:1027B00087F980583FC0CC3FFCE5DF0709F449C0EA
:1027C00008F055C0809172028160CB3FDC4509F072
:1027D00081CF809372027ECFC230EDE5DE0709F42F
:1027E00068C0A8F4C1158DE5D80709F452C08091DE
:1027F00072028360C130DD4560F380917202982FD0
:10280000909591708E7F892B90FB81F9E2CFC23633
:10281000EDE5DE0709F451C0C63AFDE5DF0709F42E
:1028200053C0C330DD4509F055CF80E043C08091EF
:1028300071028160809371024DCF8091710282603C
:10284000F9CF809171028460F5CF80917102886028
:10285000F1CF809172028260BCCF0E94C40580914A
:1028600071028068E7CF80917102877FE3CF80910A
:1028700072028E7FAECF809172028D7FAACF80913F
:1028800071028F7BD7CF0E94C405809171028F7730
:10289000D1CF809172028C7F9CCF8091710282FB9C
:1028A000992790F921E0922790FB82F990FB83F918
:1028B000C1CF81E00E945B0C0DCF90917102892FF6
:1028C0008F7E94FF8061B6CF90917102892F8E7FA9
:1028D00090FF8160AFCF81E00FCFCF93DF93EB010B
:1028E00086319C4511F50E94C40A9A81992399F07A
:1028F0008A7A91E009F490E090935302811109C023
:1029000089E20E949C0A0E94050B80E0DF91CF9132
:10291000089585E3F6CF80915302811104C089E2C6
:102920000E94A40AF0CF85E3FBCF81E0EFCF0F93A5
:102930001F93CF93DF93C42FD22FFC018281882372
:10294000C9F0409356020E94561890935502809306
:10295000540280E28C0F883040F4C77081E001C0DF
:10296000880FCA95EAF70E945A03DF91CF911F9111
:102970000F91089510915602141332C080915402A1
:10298000909155020E946E188837910548F5C0E273
:10299000CD0F1D17B9F080E2810F883040F4177019
:1029A00081E001C0880F1A95EAF70E946103C830E0
:1029B00048F481E09D2F977001C0880F9A95EAF73F
:1029C0000E945A03802F0E945103C83070F6D770BE
:1029D00081E001C0880FDA95EAF70E946103C5CF54
:1029E00080E28C0F883008F6C77081E001C0880F44
:1029F000CA95EAF7F2CF0F939C01CB01243F4CE537
:102A0000340759F1A8F4293DFCE53F0701F12A3DBF
:102A10004CE53407D1F1283D3C4591F406E221EE26
:102A200041EE68ED7CE50E94971480E00F910895D7
:102A3000263FFCE53F07E9F0B0F0273F3C45F9F0C1
:102A4000FC018281882339F110925602EFCF07E210
:102A500025EE45EE69ED7CE5E6CF06E221EE40EE9F
:102A600064EF7CE5E0CF07E225EE44EE65EF7CE520
:102A7000DACF06E221EE42EE66EF7CE5D4CF07E244
:102A800025EE46EE67EF7CE5CECF08E221E045EE8D
:102A90006AED7CE5C8CF81E0C9CF8EE1489B02C0DA
:102AA0008150E1F7489BFECF0895589880E28A95BF
:102AB000F1F7589A0895FC013BE03A95F1F798E058
:102AC00020E080E031E040E14A95F1F7880F489B33
:102AD00002C08160232742E04A95F1F7000040E1FF
:102AE0004A95F1F7915079F790E19A95F1F799B1FC
:102AF00032E03A95F1F7000040E14A95F1F7917024
:102B000092272081920F90830895A1E0B0E0EBE836
:102B1000F5E10C949A1F19828C017C01E60EF11CE0
:102B20000E151F0541F481E09981911180E02196F5
:102B3000E6E00C94B61F0E944D15CE0101960E944E
:102B40005B15F80181938F01EBCF509A589A089545
:102B50005098589AE89AE9E6F0E080818C7F80836B
:102B600008956150770B91E001C0990F6A95EAF7DB
:102B700020E031E0911108C0222391F0589A80E2C0
:102B80008A95F1F758980895492F482339F0589AB3
:102B9000232740E24A95F1F79695ECCF5898F9CF64
:102BA0005898EDCFFF920F931F93CF93DF93EC01D3
:102BB0008C01060F111DC017D10729F4CDB7DEB760
:102BC000E5E00C94B71FF9900E94551568E08F2D31
:102BD0000E94B115F0CF1F920F920FB60F921124E1
:102BE0000F931F932F933F934F935F936F937F9315
:102BF0008F939F93AF93BF93EF93FF93CF93DF9305
:102C00000F92CDB7DEB719820E944D15CE01019605
:102C10000E945B15082F069506950695282F22958C
:102C20002570902F9570290F922F937026952695D9
:102C3000920F982797708981982B09F05CC0043017
:102C400008F059C080E18A95F1F7589A509A82E0CD
:102C50008A95F1F700C0589888E0089F80011124F8
:102C6000D801AD5FBE4F1696ED91FC911797309746
:102C7000A9F0609196017091970114962D913C9165
:102C80001597260F371F11968D919C911297680FFB
:102C9000791F13964C9113978C910995F801ED5F6C
:102CA000FE4F6381662351F0209196013091970188
:102CB00084819581820F931F0E94D2150E94551521
:102CC00080E18A95F1F758985098589A80E18A9552
:102CD000F1F7F801ED5FFE4F6081662351F020911E
:102CE00096013091970181819281820F931F0E94FA
:102CF00085150E944D150F90DF91CF91FF91EF91B7
:102D0000BF91AF919F918F917F916F915F914F9103
:102D10003F912F911F910F910F900FBE0F901F9019
:102D200018950F931F93CF93DF93EC0104970CF04A
:102D30004CC0F894509A589885E08A95F1F70000B5
:102D40009C2F969595708C2F8570980F892F837086
:102D50009695969523E0CC0FDD1F2A95E1F7980F05
:102D60008E01092B0E94551500C068E0802F0E943B
:102D7000B11580E18A95F1F75098589A489B1EC08A
:102D800087E090E048991CC0FE01ED5FFE4F638133
:102D90006623F9F020919601309197018481958105
:102DA000820F931F0E948515811113C0509A589A63
:102DB0007894DF91CF911F910F91089500C0DECFDD
:102DC000019729F4509A589A789480E0F2CF00C085
:102DD000D9CF0E944D1580E28A95F1F75898509A04
:102DE00080E18A95F1F7CD5FDE4F6881662351F06F
:102DF000209196013091970189819A81820F931FCA
:102E00000E94D2150E945515789481E0D2CF9093FC
:102E1000990180939801089590935D0280935C02DC
:102E200008950E940711811103C0809157020895EF
:102E3000E0915C02F0915D02309729F00190F08101
:102E4000E02D0995089580E00895E0915C02F091ED
:102E50005D02309721F00280F381E02D09950895FD
:102E600020915A0230915B022817390771F0909334
:102E70005B0280935A02E0915C02F0915D02309710
:102E800021F00680F781E02D0995089520915802E0
:102E9000309159022817390771F0909359028093A5
:102EA0005802E0915C02F0915D02309721F00084BD
:102EB000F185E02D099508959C012E5F3F4FAC01EF
:102EC000485F5F4F80E02417350709F40895F90142
:102ED00091919F019923B9F38F5FF5CF662349F054
:102EE000FC01329608962191261729F0E817F90778
:102EF000D1F780E0089581E008959C01FC013296AD
:102F00009FEF80E04191461751F09F3F19F4411126
:102F100001C0982F8F5F8630A9F79F3F09F408956D
:102F2000290F311D97FD3A95F90162830895FC013F
:102F3000329608962191261303C0DF0111971C9247
:102F4000E817F907B9F708950E947D1708950E94C0
:102F500097170895029626E0FC0111922A95E9F749
:102F6000089508950E94B1170895811106C081E067
:102F700080935E020E94B217089582E0F9CF83E049
:102F800080935E020E94B21708950E94B5170895BB
:102F900081E080935E020E94B21708950E94C817D4
:102FA0000895089508950E94D217089508950895E8
:102FB0000E94D1170895CF930E94D6170E948E10B9
:102FC0000E94D717C0E08C2F0E94670F811105C0A7
:102FD000CF5FCA30C1F7CF91089581E0FCCF85B7AC
:102FE000806885BF85B7806885BF08951F921FB62A
:102FF0001F9211248F939F93AF93BF9380915F0291
:10300000811113C08091890290918A02A0918B0254
:10301000B0918C024196A11DB11D809389029093BD
:103020008A02A0938B02B0938C02BF91AF919F91C3
:103030008F911F901FBE1F90189580919102843030
:1030400031F10E94F30110925F0288E190E020E4E8
:103050000FB6F894A895809360000FBE209360008F
:1030600083B7817F846083BF83B7816083BF789497
:10307000889583B78E7F83BF0FB6F894A89580910B
:103080006000886180936000109260000FBE089518
:103090000E94C4050E94F801089582E084BD93E077
:1030A00095BD9AEF97BD80936E0008952FB7F89461
:1030B0008091890290918A02A0918B02B0918C023A
:1030C0002FBF08952FB7F8946091890270918A02FA
:1030D00080918B0290918C022FBF08959C014FB775
:1030E000F8948091890290918A02A0918B02B0910C
:1030F0008C024FBF821B930B0895CF92DF92EF9209
:10310000FF922FB7F894C0908902D0908A02E09085
:103110008B02F0908C022FBFA7019601261B370B64
:10312000480B590BCA01B901FF90EF90DF90CF9087
:10313000089578941F921FB61F9211248F939F9326
:10314000AF93BF938091890290918A02A0918B02E4
:10315000B0918C020196A11DB11D809389029093BC
:103160008A02A0938B02B0938C02BF91AF919F9182
:103170008F911F901FBE1F90189587E797E7909338
:1031800001088093000888E19AE00FB6F894A895AA
:10319000809360000FBE90936000FFCF88E19AE0BB
:1031A0000FB6F894A895809360000FBE90936000CE
:1031B000FFCF80916B0208950895CF93DF93EC01C8
:1031C00081E08093E9008FEF9091E800815095FDB8
:1031D00006C095ED9A95F1F700008111F5CF809129
:1031E000E80085FF14C050E040E068E070E0CE01E8
:1031F0000E94EF1A8091E8008E778093E80088E0C3
:10320000FE01A3E6B2E001900D928A95E1F7DF910D
:10321000CF9108958093600270936202609361027F
:1032200080919102843001F582E08093E9008FEF74
:103230009091E800815095FD06C095ED9A95F1F7C3
:1032400000008111F5CF8091E80085FF0DC050E0AE
:1032500040E063E070E080E692E00E94EF1A809127
:10326000E8008E778093E8000895BC0184E00E9416
:103270000A190895BC0183E00E940A19089508956F
:1032800080919002811109C00E947F1C0E94DC1C69
:103290008091E20084608093E20008951092900291
:1032A00008950E94C817089560918D0281E0611110
:1032B00001C080E00E94BF1708959091910281E0C3
:1032C000943009F080E060918D020E94C517089546
:1032D00042E061EC81E00E94FB1B42E261EC82E093
:1032E0000E94FB1B9091910281E0943009F080E0F4
:1032F00060918D020E94B5170895809193028330EA
:1033000009F461C030F48130D1F1823009F49EC0FB
:1033100008958A3009F48AC08B3009F46FC089306F
:1033200009F050C080919202813209F04BC0809127
:10333000960290919702029708F044C08091E800AD
:10334000877F8093E8008091E80082FF37C09091EA
:10335000F3008091F200029731F48091F100813006
:1033600011F0863021F48091F10080936B028091FE
:10337000E8008B778093E8000E942F1C23C0809187
:103380009202813AF9F48091E800877F8093E80007
:103390008091960290919702892B61F468E083E610
:1033A00092E070E00E943E1B8091E8008B77809352
:1033B000E800089560E090E080E0F3CF8091910212
:1033C0008111C1CF089580919202813AD9F78091FD
:1033D000960290919702892BA9F78091E800877F48
:1033E0008093E8008091E80080FFFCCF8091270166
:1033F0008093F1008091E8008E77BCCF809192029B
:10340000813201F78091960290919702892BD1F633
:103410008091E800877F8093E8000E942F1C8091B4
:103420009402809327010E94C4050895809192021E
:10343000813241F68091E800877F8093E8000E9406
:103440002F1C8091950280936C02089580919202C6
:10345000813A09F0B7CF8091E800877F8093E80038
:103460008091E80080FFFCCF80916C02C1CF84B7CF
:10347000877F84BF0FB6F894A8958091600088611B
:1034800080936000109260000FBE80E890E00FB65D
:10349000F89480936100909361000FBE0E94CE1754
:1034A00008950E947F1C0E94DC1CE2EEF0E0808107
:1034B0008460808378940E945B1F08958BE191E083
:1034C0000E940C17089580919102853031F480910B
:1034D0009102853019F00E94481808950E941D1825
:1034E00080918F02882399F30E94DB17882379F358
:1034F0000E94D91A0E94C405EACF08950E94811A39
:103500000895292F33272330310519F168F421302C
:10351000310509F444C02230310509F445C090E07A
:1035200080E030E020E025C02132310549F122322F
:103530003105A9F780E490E02DED31E061157105CA
:10354000C1F082E390E02BEA31E06130710589F04F
:10355000E6CF99278130910581F0009729F00297F5
:10356000F1F6E8E3F1E002C0EAE5F1E0849190E0F1
:103570009F01FA01318320830895ECE4F1E0F6CF56
:1035800089E090E020E731E06115710591F389E071
:1035900090E029E831E06130710559F3C0CF82E154
:1035A00090E029E931E0E5CF8BE390E02EE531E0D2
:1035B000E0CF80E189BD82E189BD09B400FEFDCF85
:1035C0008091D8008F7D8093D8008091E000826048
:1035D0008093E0008091E00081FDFCCF0895AF92E0
:1035E000BF92CF92DF92FF920F931F93CF93DF93FF
:1035F0006C01EB018A010E944E1CF82E811123C040
:103600000115110539F0F80180819181C81BD90B92
:10361000C80ED91EB12CA12C2097A9F08091E800EA
:1036200085FD22C08091E8008E778093E800011527
:103630001105A1F0F80180819181A80EB91EB18217
:10364000A08285E0F82E8F2DDF91CF911F910F91F1
:10365000FF90DF90CF90BF90AF9008950E944E1CD6
:103660008823D1F2F82EEFCFF60181916F0180937C
:10367000F1002197FFEFAF1ABF0ACECFFC01809176
:1036800098029091990286179707A0F0611571052D
:1036900029F49091E8009E779093E80090E06115FE
:1036A000710551F4911108C08091E80082FF34C087
:1036B00080E00895BC01F2CF809191028823C1F18E
:1036C0008530C1F18091E80083FD30C08091E80031
:1036D00082FDEACF8091E80080FFE1CF8091F30086
:1036E0002091F200382F6115710519F0283031054D
:1036F00058F091E02830310509F090E02091E80081
:103700002E772093E800CBCF81918093F100615018
:1037100071092F5F3F4FE7CF80919102882341F0DD
:10372000853041F08091E80083FFBECF81E00895AD
:1037300082E0089583E00895FC01809198029091C1
:10374000990286179707A0F06115710529F48091F9
:10375000E8008E778093E80090E06115710551F4E0
:10376000911108C08091E80082FF35C080E0089583
:10377000BC01F2CF809191028823C9F18530C9F153
:103780008091E80083FD31C08091E80082FDEACF9E
:103790008091E80080FFE1CF8091F3002091F2005A
:1037A000382F6115710519F02830310558F091E076
:1037B0002830310509F090E08091E8008E77809301
:1037C000E800CBCF84918093F1003196615071096C
:1037D0002F5F3F4FE6CF80919102882341F08530E3
:1037E00041F08091E80083FFBDCF81E0089582E041
:1037F000089583E00895982F973028F08F70809374
:10380000E90081E008959093E900242F762F50E09D
:10381000981731F07091EC002091ED005091F0007C
:1038200021FD02C09F5FE8CF3091EB003E7F3093D7
:10383000EB003091ED003D7F3093ED003091EB00D7
:1038400031603093EB007093EC002093ED005093C7
:10385000F0002091EE0027FDE5CF80E008958091F3
:10386000920287FF13C08091E80082FF06C080911A
:10387000E8008B778093E80004C080919102811169
:10388000F2CF0895809191028823D9F38091E800C6
:1038900080FFF8CF8091E8008E77ECCF2091E40094
:1038A0003091E50095E6A9012091EC00822F81700E
:1038B00020FF06C08091E80080FF06C080E00895E8
:1038C0002091E80022FD1AC080919102882389F09E
:1038D000853089F08091EB0085FD0FC02091E400D8
:1038E0003091E50042175307F9F29150E1F684E078
:1038F000089582E0089583E0089581E008950E948C
:10390000EE1C0E94F61CE0EEF0E080818160808376
:10391000E8EDF0E080818F77808319BCA7EDB0E0FF
:103920008C918E7F8C9380818F7E80831092900209
:1039300008950F931F93CF93DF930E94EE1C0E9474
:10394000F61CC8EDD0E088818F77888388818068F5
:10395000888388818F7D888319BC10929102109290
:103960008D0210928F0210928E0200EE10E0F8018C
:1039700080818B7F808388818160888342E060E0E2
:1039800080E00E94FB1BE1EEF0E080818E7F80836F
:10399000E2EEF0E0808181608083808188608083B6
:1039A000F80180818E7F8083888180618883DF91A8
:1039B000CF911F910F910895E8EDF0E080818F7E07
:1039C0008083E7EDF0E080818160808384E082BFC6
:1039D00081E0809390020E94991C0895E8EDF0E048
:1039E00080818E7F80831092E20008951092DA0029
:1039F0001092E10008951F920F920FB60F921124BA
:103A00002F933F934F935F936F937F938F939F93E6
:103A1000AF93BF93EF93FF938091E10082FF0BC0C0
:103A20008091E20082FF07C08091E1008B7F80934C
:103A3000E1000E945A1F8091DA0080FF19C0809136
:103A4000D80080FF15C08091DA008E7F8093DA0065
:103A50008091D90080FF96C080E189BD82E189BD57
:103A600009B400FEFDCF81E0809391020E944019CD
:103A70008091E10080FF19C08091E20080FF15C0B5
:103A80008091E2008E7F8093E2008091E20080616D
:103A90008093E2008091D80080628093D80019BCA6
:103AA00085E0809391020E9454198091E10084FF87
:103AB0002BC08091E20084FF27C080E189BD82E1B4
:103AC00089BD89B5982F917080FFFBCF8091D80078
:103AD0008F7D8093D8008091E1008F7E8093E100FC
:103AE0008091E2008F7E8093E2008091E20081600D
:103AF0008093E20080918D02882309F449C084E01C
:103B0000809391020E945D198091E10083FF29C09A
:103B10008091E20083FF25C08091E100877F809340
:103B2000E10082E08093910210928D028091E10089
:103B30008E7F8093E1008091E2008E7F8093E2008F
:103B40008091E20080618093E20042E060E080E0EA
:103B50000E94FB1B8091F00088608093F0000E941F
:103B60005119FF91EF91BF91AF919F918F917F91EB
:103B70006F915F914F913F912F910F900FBE0F90DA
:103B80001F90189519BC109291020E944E1970CF87
:103B90008091E30087FD93E090939102B3CF1F9251
:103BA0000F920FB60F9211242F933F934F935F9371
:103BB0006F937F938F939F93AF93BF93CF93DF9335
:103BC000EF93FF93D091E900DF708091EC00C82F54
:103BD000C17080FDC0E81092E9008091F000877FFD
:103BE0008093F00078940E94131E1092E900809157
:103BF000F00088608093F000CD2BCF70C093E90077
:103C0000FF91EF91DF91CF91BF91AF919F918F91F4
:103C10007F916F915F914F913F912F910F900FBEC8
:103C20000F901F901895AAE2B0E0E9E1FEE10C9434
:103C30009D1F82E992E02091F100FC012193CF01C8
:103C4000F2E08A399F07B9F70E947D198091E80058
:103C500083FF1EC180919202909193029A3008F0E6
:103C600017C1E92FF0E0E55DFF4D0C94881F803807
:103C700099F0823809F00CC1809196028F708730DC
:103C800008F006C18093E9008091EB0085FB88274E
:103C900080F91092E90006C080918E0290918F0207
:103CA000911182609091E800977F9093E800809353
:103CB000F1001092F1008091E8008E77E5C0882332
:103CC00009F4D3C0823009F0E3C0809194028111DD
:103CD000D6C0809196028F702FEF280F263008F003
:103CE000D7C08093E9002091EB0020FFC8C093303B
:103CF00031F48091EB0080628093EB00C0C0909122
:103D0000EB0090619093EB0021E030E001C0220FC6
:103D10008A95EAF72093EA001092EA008091EB007E
:103D20008860EACF8111B4C0109194021F7780910E
:103D3000E3008078812B8093E3008091E800877F07
:103D40008093E8000E942F1C8091E80080FFFCCF48
:103D50008091E30080688093E30082E0111183E0AA
:103D60008093910295C08058823008F091C0809174
:103D70009402909195028C3D23E09207A1F583E097
:103D80008A838AE289834FB7F894DE01139620E094
:103D90003EE051E2E32FF0E050935700E49120FF22
:103DA00003C0E295EF703F5FEF708E2F90E0EA3036
:103DB000C0F0C7968D939D932F5F243159F74FBF65
:103DC0008091E800877F8093E8006AE270E0CE018E
:103DD00001960E943E1B8091E8008B778093E8005B
:103DE00057C0C096E7CF6091960270919702AE01DE
:103DF0004F5F5F4F0E947E1ABC01892B09F448C0B7
:103E00009091E800977F9093E80089819A810E94C1
:103E10009C1BE1CF8038E1F58091E800877F80939B
:103E2000E80080918D028093F10045CF811130C070
:103E300090919402923060F58091E800877F8093A2
:103E4000E80090938D020E942F1C80918D028823A0
:103E500011F084E005C08091E30087FDFACF81E096
:103E6000809391020E94681913C08091940281305E
:103E700079F481E0933009F080E080938F02109212
:103E8000E9008091E800877F8093E8000E942F1C62
:103E90008091E80083FF0AC08091E800877F8093CB
:103EA000E8008091EB0080628093EB00AA96E3E04B
:103EB0000C94B91F0895CF93809191028823A1F0AB
:103EC000C091E900CF709091EC00892F817090FD36
:103ED00080E8C82B1092E9008091E80083FD0E94E1
:103EE000131ECF70C093E900CF9108950E947F1CEC
:103EF000109291020895E8EDF0E080818061808366
:103F00008AE18A95F1F700C08091D9008170089507
:103F1000EE0FFF1F0590F491E02D09942F923F9230
:103F20004F925F926F927F928F929F92AF92BF92C9
:103F3000CF92DF92EF92FF920F931F93CF93DF9375
:103F4000CDB7DEB7CA1BDB0B0FB6F894DEBF0FBED2
:103F5000CDBF09942A88398848885F846E847D841F
:103F60008C849B84AA84B984C884DF80EE80FD8021
:103F70000C811B81AA81B981CE0FD11D0FB6F89497
:103F8000DEBF0FBECDBFED010895FB01DC0104C013
:103F90008D910190801921F441505040C8F7881B41
:103FA000990B0895FB01DC0102C001900D92415074
:103FB0005040D8F70895F999FECF92BD81BDF89A87
:103FC000992780B50895A8E1B0E042E050E00C9454
:103FD0000F20262FF999FECF92BD81BDF89A019747
:103FE00000B4021639F01FBA20BD0FB6F894FA9A41
:103FF000F99A0FBE08950396272F0E94EA1F0E9488
:10400000E91F252F0E94EA1F242F0C94EA1F019616
:10401000272F0E94EA1F0C94E91FDC01CB01FC0151
:10402000F999FECF06C0F2BDE1BDF89A319600B411
:104030000D9241505040B8F70895F894FFCFA30374
:10404000A303D403D40361040304030403047D0421
:10405000090518051805371E5F1E481F5F1E481FFB
:0A406000921EB31E481F0A1F161F10
:10406A001302010000000100000000000000050129
:10407A000000000406000000000000D918DD183F07
:10408A00193A193519DC1801E200E900EA00B5000D
:10409A00B600B700CD008301CC008A0192019401D9
:1040AA002102230224022502260227022A02B30041
:1040BA00B4006F007000818283E200E900EA00B573
:1040CA0000B600B700CD008301CC008A01920194AA
:1040DA00012102230224022502260227022A02B310
:1040EA0000B4006F007000818283F4F5F6F7313373
:0840FA00329497C634353802F8
:00000001FF
